:020000041000EA
:10000000002008205D01001013010010093F0010BE
:100010001101001011010010110100101101001058
:100020001101001011010010110100101701001042
:100030001101001011010010190100101B01001026
:100040001D0100101D0100101D0100101D010010F8
:100050001D0100101D0100101D0100101D010010E8
:100060001D0100101D0100101D0100101D010010D8
:100070001D0100101D0100101D0100101D010010C8
:100080001D0100101D0100101D0100101D010010B8
:100090001D0100101D0100101D0100101D010010A8
:1000A0001D0100101D0100101D0100101D01001098
:1000B0001D0100101D0100101D0100101D01001088
:1000C0001D0100101D0100101D0100101D01001078
:1000D0001D0100101D0100101D0100101D01001068
:1000E0001D0100101D0100101D0100101D01001058
:1000F0001D0100101D0100101D0100101D01001048
:100100001D0100101D0100101D0100101D01001037
:1001100000BE00BE00BE00BE00BE00BEEFF3058004
:10012000103800BEF2EB8871307409105474091055
:10013000A801001090A31AE7D3DEFFFF42012110AF
:10014000FF0100008C9E0900793512AB4FF00000D2
:100150002049086006C881F3088810474FF05040D6
:10016000006810B14FF00000F2E70FA40ECC002998
:1001700002D000F015F8F9E71749184A002000E00E
:1001800001C19142FCD1002080F30A8814498847BC
:10019000144988471449884700BEFDE701C901C2D8
:1001A0009A42FBD3704700BF547409107822002094
:1001B000E84D0020C49F091000000820000008201E
:1001C000C49F091000100820001008200000000043
:1001D0007047000008ED00E0E84D0020787B042027
:1001E00051AE00104102001049AE0010F8B500BF3A
:1001F000064B0749C91A891048BF0131491003D07D
:10020000044B0BB101481847704700BFE84D002070
:10021000E84D00200000000008B5054B1BB1054962
:100220000548AFF30080BDE80840FFF7E1BF00BF1D
:100230000000000030B800201048041003F00ABE8F
:100240002DE9F04FA9B005F0D1FE04F0D9FD04F07E
:1002500071FF002840F09A820D260C250B24364BA6
:1002600012A91B880020ADF848300DF04FFE012088
:100270000BF018FC04F0DCFB0AF018FF40F2DC5035
:1002800008F0FAFB2D4804F011FC2D4804F00EFC98
:100290002C4F2D4804F00AFC05F0CEFE03F0B6FF0B
:1002A0002A4800F089FA0A23092208212848CDE9C2
:1002B0000267CDE9004504F0F9FB0021234800F076
:1002C000DBFA244804F0F2FBF02108462BF0E2FEB2
:1002D0008246002800F061821F4804F0E7FB00F02E
:1002E0000FFD1E4804F0E2FB06F07EFF1C4804F000
:1002F000DDFB07F07BF81B4804F0D8FB24F02EFC54
:100300000446002840F09D81174804F0CFFB50467A
:1003100001F068FD05F0AEFC08F062FDCDE90801D2
:1003200004F08CFA27462646D146DFF840B01090FC
:100330000E9406940F94E1E0D4C5041070480410A4
:1003400094480410C0687804BC4804100080084039
:10035000FC48041044490410A8490410BC49041086
:10036000D4490410EC490410244A04103F420F0001
:100370000F9BB8EB03080E9B67EB0307C34570EBBD
:100380000707C0F032814FF0000ACDE90A540C95FE
:100390000794CDF834A00C2005F0F8FB08F020FD00
:1003A000064648460F4601F049FD08F019FD821B3C
:1003B00061EB0703062004F037FF06F055FE182016
:1003C00005F0E4FB08F00CFD0022089B0F46B0EBA3
:1003D0000308099B064661EB0303C34572EB030167
:1003E000C0F0418108F0FCFCDFF84883821B61EB20
:1003F0000703072004F018FFD8F800301920013354
:10040000C8F8003005F0C2FB08F0EAFCC14B0F460B
:10041000D8F80010C04A01FB03F303F11133B2EB2B
:10042000B30F059080F0598108F0DAFC059BC21AE1
:1004300061EB0703082004F0F7FE08F0D1FCB74B8E
:100440008846D3E9006256EA0201074600F0FD80C3
:100450000021BE1B68EB0202B34571EB02020ED213
:100460001A20C3E9007805F091FB304604F05AFBEE
:10047000304603F083FA03F027FB04F06DFF08F029
:10048000AFFCC21B61EB0803092004F0CDFE1B206A
:1004900005F07CFB08F0A4FC06460F4604F024FDA2
:1004A00008F09EFC821B61EB07030A2004F0BCFEEF
:1004B0001C2005F06BFB08F093FC06460F4605F088
:1004C0001BFC05F04DFD08F08BFC821B61EB070364
:1004D0000B2004F0A9FE08F083FC401B61EB040133
:1004E000B0F57A5F71F10001C0F0EA800026324673
:1004F00000230C2004F098FE2F462646012005F02C
:1005000045FB08F06DFC57EA060305460C4640F033
:10051000A3804FF05042536813F4002340F09980B9
:10052000526812F4001240F09280069B01333C2B7B
:10053000069300F02781022005F028FB08F050FC0C
:1005400006460F4618A8082100F024FC002840F0B9
:10055000BE8008F045FC821B61EB0703002004F01D
:1005600063FE2846214606F0B5FE2146284606F0E1
:1005700095FF052005F00AFB08F032FC06464846C8
:100580000F4600F0D5FF08F02BFC821B61EB070340
:10059000022004F049FE062005F0F8FA08F020FCDD
:1005A0002A460646234648460F462CF030F808F007
:1005B00017FC821B61EB0703032004F035FE48465D
:1005C00002F0AEFF48462BF0CCFD0646B0FA80F0B4
:1005D000400900F029FB08F003FC804648460F461E
:1005E0002BF0B5FD00283FF4C3AE002E7FF4CBAE58
:1005F000CDE91366CDE91566179608F0F1FB824642
:100600000720884605F0C2FA484613A92BF07AFF66
:1006100008F0E6FBB0EB0A0A61EB08030A905246C9
:1006200004200B910D9304F0FFFD149921B1159A4C
:10063000B2F5614F00F0808008F0D2FB0C9007917A
:10064000A9E6374804F032FAFEE7002608E70693E9
:1006500071E7002306936EE7C21B61EB06030D20D2
:1006600004F0E2FD55E7089304F0E8F8059004F083
:10067000DFF8002849D0109A059B9B1A099304F0D3
:10068000E3F8099B109027484246A3FB0001089B12
:1006900011933DF0F3FD4FF47A7200230890119905
:1006A00040463DF0EBFDDDE90823CDE9000110995E
:1006B0001D4804F0FBF9059BCDE90867109391E60E
:1006C000C0F57A563046002108F06AF90FE7024675
:1006D00018A948462BF04FFD3BE7DDE90C63701B82
:1006E00002900798524660EB040E30460A9ECDF801
:1006F0000CE0B0EB060807980B9E60EB060CCDE90A
:10070000008C0A4804F0D2F98EE60599084804F0F6
:10071000CDF9D0E7EFEEEEEE44444404A87E00208D
:10072000004A041040420F003C4A0410D04A041012
:10073000944A0410A49A0020139B012B31D1BDF8D8
:100740005A30002B3FF478AF0846F0213246179E0E
:100750007388F688CDE9001600F078F908F040FBC0
:10076000CDE90E1008F03CFB03460A9A0C939A1A46
:100770000B4607910B994FF0050063EB010304F062
:1007800053FD08E61146104608F0D6FC04F0D8FCEC
:100790000146064804F08AF95EE5054804F086F94A
:1007A000FEE7044800F032FAD8E700BF2048041002
:1007B000844904100080084038B52B4C2060082084
:1007C00007F026F808234FF0010242EC44300920DC
:1007D00007F01EF809234FF0010242EC443042ECCE
:1007E00040300C2007F014F80C234FF0010242ECCB
:1007F00044300D2007F00CF80D234FF0010242ECBD
:1008000044304FF0000242EC40300A20012106F053
:1008100041FF01210B2006F03DFF144920680DF037
:1008200087FE12490246124804F040F922684FF050
:10083000020E134653F8041F02F5805403F5405C82
:10084000CCF800E0126803F5005382F0070201EAD9
:100850000E0102F0CF022260012019600DF0ECFEC3
:10086000044B186038BD00BFC0720120C068780416
:10087000044B0410084600202DE9F043894685B05A
:100880000C25012444EC40500A2008F0F5F84FF004
:10089000000646EC40500A2008F0EEF844EC4050C8
:1008A000782008F0E9F809278DF80C4046EC4070F4
:1008B0004FF0080846EC4080634D2246286803A9A3
:1008C00043F07EFF44EC4070962008F0D5F81123E9
:1008D0008DF80C3046EC407046EC4080224628688B
:1008E00003A943F06DFF44EC4070782008F0C4F891
:1008F00055238DF805303A238DF80C3046EC4070C6
:1009000046EC40802246286803A943F059FF44EC96
:100910004080224628680DF1050143F051FF44EC68
:10092000407060238DF8063036238DF80C3046EC8D
:10093000407046EC40802246286803A943F040FFFF
:1009400044EC4080224628680DF1060143F038FF50
:1009500044EC407021238DF80C3046EC407046EC9E
:1009600040802246286803A943F02AFF44EC4070E7
:100970004FF06F432A2202938DF80C2046EC407012
:1009800046EC40802246286803A943F019FF44EC56
:100990004080042228680DEB080143F011FF44EC6D
:1009A00040704FF06F4303932B238DF8073046ECD4
:1009B000407046EC4080224628680DF1070143F064
:1009C000FFFE44EC40800422286803A943F0F8FEAF
:1009D00044EC407046EC407046EC40802C232246AC
:1009E00028680DF107018DF8073043F0E9FE44EC6B
:1009F00040804FF4614499FA99F3ADF80C3002222B
:100A0000286803A943F0DCFE013CF8D109274FF028
:100A1000010646EC407029238DF8083044EC407004
:100A2000082344EC4030012228680DEB030143F019
:100A3000C7FE46EC4070142008F01EF80D2346EC6B
:100A4000403005B0BDE8F083C07201202DE9F04FC1
:100A500087B00090082016461D468B46BDF84040E2
:100A6000BDF844A005F092F82A230021320A8DF83F
:100A70001430631E334462F3070166F30F21C3F39E
:100A8000072262F317419BB263F31F610AF1FF3340
:100A90002B449BB20491019309264FF0000848ECC7
:100AA0004060082748EC4070544C0122206805A99A
:100AB00043F086FE4FF0010949EC407004222068A3
:100AC00004A943F07DFE49EC40602B210022019BEC
:100AD0008DF80F1025FA07F161F3070265F30F2275
:100AE00023FA07F161F3174263F31F62059248ECA2
:100AF000406048EC4070012220680DF10F0143F086
:100B00005FFE49EC40700422206805A943F058FEBE
:100B100049EC40600BFB05F3009A0BFB0AF502EB76
:100B2000430A48EC406048EC40702C2301222068C6
:100B300005A98DF8143043F043FE49EC407022685B
:100B40002F4913468A4214BF4FF4401C4FF4501CE7
:100B50004FF0020E2B4F304639682B4E06EA4136D5
:100B600053F8041F46EA0C0601EA0E0C03F5405147
:100B7000C1F800E0116803F5005381F00F0102F5A0
:100B8000805201F0CF011160C3F800C004F0FEFFF5
:100B90003A682368920102F1A04246F01506083334
:100BA000C2F800A053609560D66013695901FCD467
:100BB0000A2004F0EBFF2268D368DB06FCD409238B
:100BC0004FF0010141EC40301346022653F8041F58
:100BD00002F5805403F540552E601268314082F0D2
:100BE000070203F5005302F0CF0222600B201960C8
:100BF00004F0CCFF07B0BDE8F08F00BFC072012049
:100C00000080084008460020FFFF01FC4FF0F00C78
:100C1000002300B583B008461A466146CDE900CCF2
:100C2000FFF714FF03B000BD0D2340EC40307047C8
:100C30002DE9F0474FF050444FF0010E294A2A4861
:100C40002A492B4D2B4F2C4E02F1120C13781F2BDF
:100C500092BFD4F80480D4F80880203B0EFA03F346
:100C600013EA080F14BF4FF001084FF000080B788B
:100C70005B00B8F1000F11D043F00103DBB2FF2B92
:100C80000B7001D1002303700232624500F10100B4
:100C900001F10101DAD10120BDE8F087DBB20B7070
:100CA000002BF1D103789BB92B7897F800A003F1C2
:100CB000010909F01F09CA45DBB20BD085F8009085
:100CC00092F8019046F8339006EBC303A3F8048032
:100CD0000123D8E7DFF82480D8F800300133C8F8C2
:100CE0000030F5E7D8C50410ACDE0020E0DE0020BF
:100CF000687B04206A7B042020E6002040670120F6
:100D00002DE9F04700244FF0FF0AA046184F194E76
:100D1000DFF87C9084B019F81450284606F078FD6E
:100D20004FF0000343EC44500022012128460134D7
:100D300006F0CEFC092C07F801AF06F8018FEAD1C6
:100D40000D490E4A0E4B81F800800E4C82F800804F
:100D5000C3F8008007F00CFC0B494FF0FF33CDE9DE
:100D600001840A4A009107F071FF04B0BDE8F087E2
:100D7000DFDE0020ABDE0020687B04206A7B0420DD
:100D800040670120087F0020310C001018FCFFFF95
:100D9000D8C504102DE9F0430E4609B307460022DA
:100DA000114DDFF84890DFF8488008E001329642A4
:100DB00093E8030085F800C084E8030010D095F89C
:100DC00000E099F800105FFA8EF303F1010C714511
:100DD00007EBC20408EBC3030CF01F0CE6D1164668
:100DE0003046BDE8F08300BF6A7B0420687B0420A6
:100DF00020E6002030B584460D46EFF3108472B62D
:100E0000DFF8A0E0204A9EF8003011785A1C02F06A
:100E1000070291422AD024201C49DBB220FA0CF0B0
:100E2000C3EBC303C00701F803C010D4184B8EF8FE
:100E300000201A6801321A6084F310881A68154B72
:100E4000154853F82C10BDE8304003F02FBE8EF843
:100E500000202A680133CA50AA880B449A800C4BA0
:100E60001A6801321A6084F31088E7E70B4A1368A6
:100E70000133136084F31088064B094853F82C1093
:100E8000BDE8304003F012BE587B0420A0B900201A
:100E9000DCB90020ECC50410644B0410D8B9002064
:100EA0002C4B0410577B04202DE9F04304466421A9
:100EB00083B01AF01DFDDFF8E4802046304C1AF0B4
:100EC00021FD022004F09AFE227898F800309A4220
:100ED00035D02C4F2C4E2D4DDFF8C4902378C3EB2A
:100EE000C3020133B85803F0070323703168BB18FD
:100EF00000909A7998889DF8003001313160052B77
:100F000098BF59F82310ADF804008DF8062088BF6B
:100F1000294632681E4803F0C9FD9DF80030052BB4
:100F200008D8DFE803F0191325222A030DF1010088
:100F300005F0ECFF227898F800309A42CED107F005
:100F40004FFF03B0BDE8F04302F07EBB114803F051
:100F5000ADFD20F035FDEDE718220A210E4803F023
:100F6000A5FD082020F00EFDE4E702F0E5FCE1E736
:100F70000DF1010002F0A8FCDCE705F02BFFD9E73A
:100F8000587B0420A0B90020E0B90020E4B9041087
:100F9000A04B0410004C0410DC4B0410577B0420C1
:100FA000ECC5041000000000042841D12DE9F04FE9
:100FB0001D4613781446602BE9B000F0ED8038D858
:100FC000032B00F094810E2B5BD1032110461AF005
:100FD000DDFC814B1B88834253D16B1F2E467F481B
:100FE0009DB22F4603F062FD002D00F06E82B31F0C
:100FF00014FA83F326465D1D043414F8011F784863
:1010000003F054FDAC42F8D1764803F04FFD082FB1
:1010100040F25E82B1897289707AB6F80730CDE904
:101020000121B279717900906F4803F03FFD28E00B
:101030007047DC2B28D0DD2B23D109906B4803F0BF
:1010400035FDDDF8C4E0EFF3108C72B668486949ED
:1010500003780C78591C01F01F01A142099ADBB2F8
:1010600000F088814FF492740170002104FB03F3B7
:101070006148C2500344C3E90111C3F814E08CF382
:10108000108869B0BDE8F08F06220EA9A01C1AF0E6
:10109000FDFCA37B002B40F04F811F469946637EE9
:1010A000002B40F04E811E461D469B460DF1B00AB6
:1010B000204609211AF070FC9DF83D300446029349
:1010C0009DF83C309DF8392001939DF83B309DF808
:1010D00038100490009349489DF83A3005950397DD
:1010E000CDF818A003F0E2FC262200210DF14E00FD
:1010F0003DF03EF8DDE90E019FED357B8DED107B77
:101100001290ADF84C108DF85890179415960DF17B
:10111000780C0DF1400EBEE80F00ACE80F00BEE801
:101120000F00ACE80F00BEE80F00ACE80F00DEF8DF
:101130000030CCF80030EFF3108372B61D462C4B14
:101140002C4A99461B781278591C01F01F019142D4
:101150000F46DBB200F015814FF492728DED1E7BCD
:1011600002FB03FE244B239603EB0E0C1EAC0FCCAC
:10117000ACE80F000FCCACE80F000FCCACE80F00D0
:101180002368CCF80030BBF1000F40F0EA8089F80A
:10119000007085F3108874E79378022B7FF471AFA9
:1011A000174803F083FC0C481CF05EFD05F016FDAB
:1011B0000B90002800F0EC800E4B4FF0000BDFF896
:1011C00030900A931EAF0DF1B00A3DE0AFF30080FE
:1011D000040000000100000004CD0410444C041081
:1011E00054840410904D0410BC4C0410944D041011
:1011F000597B04205A7B0420E4B90020404D0410A0
:10120000204C0410099A042138920A22CDE92C12AC
:101210004FF492725546B549319402FB03148DF890
:10122000DEE00FCD0FC40FCD0FC40FCD0FC42B6860
:1012300089F800C0236086F310880B9A0BF1010334
:1012400093429B4600F0AB800DAB009310AA0DF1CA
:1012500033030EA95FFA8BF005F0DCFC00230420B9
:101260000A21D4463D4687F82F300D9ECDE91E0158
:10127000DDE90E019DF833E010AC2090ADF884104C
:101280000FCCCDF88600CDF88A10CDF88E20CDF8A1
:1012900092300FCCCDF89600CDF89A10CDF89E2064
:1012A000CDF8A23087F82EE03E6309960FCDACE86A
:1012B0000F000FCDACE80F000FCDACE80F002B688E
:1012C0007C69CCF80030EFF3108372B61E460A9AA0
:1012D00099F80030127803F1010C0CF01F0C9445C2
:1012E000DBB28FD1824A136801331360A3E7501D2C
:1012F0002CA9957809931AF0D5FB099920461AF084
:1013000045FB0346227BE47A0692CDE904349DF83E
:10131000B5209DF8B4309DF8B340CDE902329DF878
:10132000B2202946CDE9002472489DF8B1309DF8DD
:10133000B02003F0BBFBA4E694F90F3099461F469A
:10134000ADE6A37E2CA8F02B28BFF02304F11B01EF
:101350001A461D469B461E460DF1B00A3CF0ABFEF8
:10136000A6E6624B0EF134003246514618443CF07A
:10137000A2FE0CE75E4A1368013313608CF31088F9
:101380007FE65B4A13680133136085F3108878E6C3
:10139000594BDFF874910A931EAF0DF1B00A05F0B6
:1013A00017FC319CEFF3108172B699F800300A9A5D
:1013B00092F800C05A1C02F01F026245DBB200F036
:1013C000AE8089F800204FF492724FF0040E4FF077
:1013D000090C02FB03F3454A42F803E013440B9A5D
:1013E000C3F804C018725A725C6181F310883C46DD
:1013F000DFF818E1D446BEE80F000FC4BEE80F00C6
:101400000FC4BEE80F000FC4DEF800E0C4F800E02F
:101410003C460FCCACE80F000FCCACE80F000FCC73
:10142000ACE80F00CCF800E0EFF3108E72B699F83C
:1014300000300A9A11785A1C02F01F028A42DBB26D
:1014400066D089F800204FF492720021D446274CD0
:10145000319102FB0344BCE80F000FC4BCE80F004D
:101460000FC4BCE80F000FC4DCF8003023608EF31B
:101470001088319CEFF3108172B699F800300A9A07
:1014800010785A1C02F01F028242DBB227D04FF4C0
:10149000927C4FF0040E0CFB03F389F80020134AF2
:1014A000012042F803E0134400225C61C3E90120FB
:1014B00081F3108818220A21104803F0F7FA082057
:1014C00069B0BDE8F04F20F05DBA0D4803F0EEFAC8
:1014D00039460C4869B0BDE8F04F03F0E7BA044A5A
:1014E00013680133136081F31088E3E7E4B9002047
:1014F00064DE0020AC4D04105A7B0420DC4B041049
:10150000904D0410784C0410597B042004C604103C
:10151000064A1368013313608EF31088A9E7034A63
:1015200013680133136081F3108860E764DE0020E4
:101530002DE9F04F2B4EDFF8C080327898F800305C
:101540009BB09A420B903FD04FF49279264F0DAD4D
:10155000AC4696F800A009FB0AFE07EB0E04D4F88F
:1015600004B00FCCACE80F000FCCACE80F000FCCF0
:10157000ACE80F002368BBF1010FCCF800306C46DB
:101580005FFA8AFA0DF1400C04D10EF1340E07EB2C
:101590000E031193BCE80F000FC4BCE80F000FC48A
:1015A0009CE8030084E803000AF1010A95E80E00B4
:1015B0000B980AF01F0A2AF0CBFE86F800A03278BA
:1015C00098F800309A42C3D1084B094D1C682B682B
:1015D000A34204D02146074803F068FA2C601BB0F0
:1015E000BDE8F08F5A7B0420E4B9002064DE0020BF
:1015F000F0DE00202C4E0410597B042070B51646F6
:10160000EFF3108572B6134B1B7833B10C460622EC
:10161000014611483CF0E5FB30B14FF0000C86F874
:1016200000C085F3108870BD0C4BDFF834E093F8F0
:1016300000C0BEE80F0020606160A260E360BEE809
:101640000F0020616161A261E36186F800C085F34B
:10165000108870BD5C7B042084DE00205B7B04204E
:101660008CDE002000B58FB0DDF818E0EFF3108CB1
:1016700072B6124912480B780078DAB2013303F0DF
:101680001F03834212D00B704FF4927302FB03F3DB
:1016900004220C490320CA5000220B44C3E9012054
:1016A000C3F814E08CF310880FB000BD064A13682D
:1016B000013313608CF310880FB000BD597B0420F8
:1016C0005A7B0420E4B9002064DE002000B58FB00E
:1016D000DDF818E0EFF3108C72B6124912480B785F
:1016E0000078DAB2013303F01F03834211D00B708C
:1016F0004FF4927302FB03F3042200210B48C25003
:101700000344C3E90111C3F814E08CF310880FB04F
:1017100000BD074A1368013313608CF310880FB0C3
:1017200000BD00BF597B04205A7B0420E4B900208F
:1017300064DE002010B58EB0069CEFF3108E72B6FA
:101740001149124A0B7892F800C05A1C02F01F028D
:10175000624510D04FF4927C0A700422DBB20CFB7D
:1017600003F30B49CA500B44C3E901205C618EF3BB
:1017700010880EB010BD074A1368013313608EF352
:1017800010880EB010BD00BF597B04205A7B042086
:10179000E4B9002064DE002030B59DB004460D465B
:1017A000252200210DF10F003CF0E2FC9FED2A7B89
:1017B000EE468DED007B2068A3880290ADF80C30DA
:1017C0008DF80E500DF1380CBEE80F00ACE80F009C
:1017D000BEE80F00ACE80F00BEE80F00ACE80F0059
:1017E000DEF80030CCF80030EFF3108472B61C48FD
:1017F0001C4A037892F800C0591C01F01F01614592
:1018000022D001704FF492708DED0E7B0021DAB280
:10181000154B8DF8465000FB023C0DF1380E13912C
:10182000BEE80F00ACE80F00BEE80F00ACE80F0008
:10183000BEE80F00ACE80F00DEF80030CCF8003056
:1018400084F310881DB030BD084A1368013313605B
:1018500084F310881DB030BD0400000006000000B5
:10186000597B04205A7B0420E4B9002064DE002068
:1018700030B59DB004460D46262200210DF10E0024
:101880003CF076FC9FED2A7BEE468DED007B2068D8
:10189000A3880495ADF80C3002900DF1380CBEE829
:1018A0000F00ACE80F00BEE80F00ACE80F00BEE888
:1018B0000F00ACE80F00DEF80030CCF80030EFF39A
:1018C000108472B61C481D4A037892F800C0591C57
:1018D00001F01F01614520D001704FF492708DED31
:1018E0000E7B0021DAB2164B0DF1380E00FB023CE4
:1018F0001391BEE80F00ACE80F00BEE80F00ACE8A3
:101900000F00BEE80F00ACE80F00DEF80030CCF8A6
:10191000003084F310881DB030BD0A4A13680133CB
:10192000136084F310881DB030BD00BFAFF300809A
:101930000400000003000000597B04205A7B0420AF
:10194000E4B9002064DE002070B515469CB0044662
:101950000E46262200210DF1160001933CF008FCF2
:10196000102D2A469FED2E7B28BF1022019B314669
:101970000A932068A38804900DF11600ADF8143086
:101980008DF826208DED027B3CF095FB0DF13C0C93
:101990000DF1080EBEE80F00ACE80F00BEE80F0026
:1019A000ACE80F00BEE80F00ACE80F00DEF8003036
:1019B000DDF81CE0CCF80030EFF3108472B61A4A60
:1019C0001A4913780978D8B2013303F01F038B4208
:1019D0001DD013704FF49272154BCDF850E002FBFE
:1019E000003C0DF13C0EBEE80F00ACE80F00BEE875
:1019F0000F00ACE80F00BEE80F00ACE80F00DEF807
:101A00000030CCF8003084F310881CB070BD094A57
:101A100013680133136084F310881CB070BD00BFDD
:101A20000400000008000000597B04205A7B0420B9
:101A3000E4B9002064DE002030B59BB0EE46254CB2
:101A40000DF1340C0FCCAEE80F000FCCAEE80F0058
:101A50000FCC25686C46AEE80F00CEF800500FCCD6
:101A6000ACE80F000FCCACE80F000FCCACE80F00D7
:101A7000CCF80050EFF3108572B6174917480B7871
:101A800000785A1C02F01F0282421AD00A704FF4EA
:101A900092720021124CDBB202FB03440DF1340CB4
:101AA0001291BCE80F000FC4BCE80F000FC4BCE8E3
:101AB0000F000FC4DCF80030236085F310881BB0E2
:101AC00030BD084A13680133136085F310881BB0DA
:101AD00030BD00BF38C60410597B04205A7B042057
:101AE000E4B9002064DE00209FED397BF0B50646A6
:101AF00000209DB08DED007BEE461D460C930B68DB
:101B00008DF82F00CDF80E304B683068CDF81230CC
:101B10008B680290CDF81630CB680DF1380CCDF8FB
:101B20001A30B3888DF82E20ADF80C300B691446AE
:101B3000CDF81E304B69CDF822308B69CDF82630B8
:101B4000CB69CDF82A30BEE80F00ACE80F00BEE844
:101B50000F00ACE80F000F46BEE80F00ACE80F0026
:101B6000CCF80050EFF3108672B61B481B4A03787E
:101B700092F800C0591C01F01F01614520D001708E
:101B80004FF492718DED0E7BDAB2154B1A9501FB75
:101B9000023C8DF866400DF1380EBEE80F00ACE84F
:101BA0000F001397BEE80F00ACE80F00BEE80F006F
:101BB000ACE80F00CCF8005086F310881DB0F0BDE3
:101BC000084A13680133136086F310881DB0F0BD16
:101BD000040000000A000000597B04205A7B042006
:101BE000E4B9002064DE002010B59CB00446262233
:101BF00000210DF10E003CF0BBFA9FED297BEE4673
:101C00008DED007B2068A3880290ADF80C300DF1BB
:101C1000380CBEE80F00ACE80F00BEE80F00ACE8DF
:101C20000F00BEE80F00ACE80F00DEF80030CCF883
:101C30000030EFF3108472B61B481C4A037892F808
:101C400000C0591C01F01F01614520D001704FF404
:101C500092708DED0E7B0021DAB2154B0DF1380E2E
:101C600000FB023C1391BEE80F00ACE80F00BEE899
:101C70000F00ACE80F00BEE80F00ACE80F00DEF884
:101C80000030CCF8003084F310881CB010BD094A35
:101C900013680133136084F310881CB010BD00BFBB
:101CA000040000000B000000597B04205A7B042034
:101CB000E4B9002064DE002030B59BB0EE46254C30
:101CC0000DF1340C0FCCAEE80F000FCCAEE80F00D6
:101CD0000FCC25686C46AEE80F00CEF800500FCC54
:101CE000ACE80F000FCCACE80F000FCCACE80F0055
:101CF000CCF80050EFF3108572B6174917480B78EF
:101D000000785A1C02F01F0282421AD00A704FF467
:101D100092720021124CDBB202FB03440DF1340C31
:101D20001291BCE80F000FC4BCE80F000FC4BCE860
:101D30000F000FC4DCF80030236085F310881BB05F
:101D400030BD084A13680133136085F310881BB057
:101D500030BD00BF6CC60410597B04205A7B0420A0
:101D6000E4B9002064DE0020EFF3108C72B6154950
:101D700015480B7800785A1C02F00702824216D0F0
:101D800000B54FF0040E0A70104A11481168DBB21A
:101D9000C3EBC3030131116000F803E08CF310883A
:101DA0000C4912680C485DF804EB02F07FBE0B4A48
:101DB0001368013313608CF310880649084802F059
:101DC00075BE00BF577B0420587B0420DCB900207F
:101DD000A0B90020644E0410644B0410D8B9002050
:101DE0002C4B041010B5044604F08AFD02201FF0AD
:101DF00025FE0D4B0D4843601BF08AFB204601F089
:101E000079FC0B490B4819F04FFD6421094819F082
:101E10006FFD084819F076FD074802F047FEBDE85F
:101E2000104001201FF06EBAA90F001008A2002078
:101E3000A90E0010E4720120744E041030B5ADB04C
:101E400005900D2003F0A2FE059907A82AF000FADC
:101E50000E2003F09BFE079902290ED19DF8203039
:101E6000072B00F28A81DFE813F032003600D00041
:101E70002B01880155016F010E000222C14802F0BA
:101E800015FE2DB030BDEFF3108072B6BE49DFF8FD
:101E900038C30B789CF800C05A1C02F00702624558
:101EA000DBB200F0B9814FF0030C0A70B74AC3EB04
:101EB000C303116801311160B54901F803C080F313
:101EC0001088B4491268B44802F0F0FDD9E70F2039
:101ED00003F05CFED5E7102003F058FEDFF8ECC2FB
:101EE0000DF1480EBCE80F00AEE80F00BCE80F0093
:101EF000AEE80F00BCE80F00AEE80F00DCF80050C1
:101F000012AC0DF17C0CCEF800500FCCACE80F00F9
:101F10000FCCACE80F000FCCACE80F00CCF80050B1
:101F2000EFF3108372B61C469C4B1B78591CDAB237
:101F30009B4B01F01F011B78994200F06681974B83
:101F40000DF17C0E197000234FF492712493954B80
:101F500001FB023CBEE80F00ACE80F00BEE80F003A
:101F6000ACE80F00BEE80F00ACE80F00DEF8003070
:101F7000CCF8003084F31088DDF890C0EFF31081C6
:101F800072B6864B864A1B7810785A1C02F01F02E4
:101F90008242DBB200F032814FF4927E04240EFBC9
:101FA00003F37E4802707F4A0120D450134400227C
:101FB000C3F814C0C3E9012081F31088EFF3108047
:101FC00072B67149DFF800C20B789CF800C05A1C49
:101FD00002F007026245DBB200F005814FF0000C11
:101FE0000A706A4AC3EBC303116801311160684982
:101FF00001F803C080F310886B491268664802F04C
:1020000055FD112003F0C2FD3BE7122003F0BEFD99
:102010009DF826109DF825209DF824C0CDE90121CA
:1020200062489DF822209DF823309DF82110CDF8BC
:1020300000C002F03BFD9DF84720EFF3108372B61D
:102040001C46DDF821005A4BBDF825101860998018
:10205000002A40F0BD800121564B1A70564B197072
:1020600084F31088DDF890E0EFF3108072B64B49EE
:102070004B4A0B7892F800C05A1C02F01F026245CE
:10208000DBB200F0DF804FF4927C04240CFB03F3FE
:102090000A70444A0221D45013440022C3F814E0C9
:1020A000C3E9012180F31088132003F06FFD0220A3
:1020B0000DF12101FEF79EFE142003F067FDE0E61E
:1020C000152003F063FDEFF3108072B62E49DFF8A0
:1020D000F8C00B789CF800C05A1C02F00702624559
:1020E000DBB200F0A4804FF0010C0A70274AC3EB6A
:1020F000C303116861441160254901F803C080F3EE
:1021000010882E491268244802F0D0FC162003F0F3
:102110003DFDB6E69DF826009DF825109DF824C0EB
:10212000CDE901109DF822209DF821109DF8233063
:102130002348CDF800C002F0B9FC00220DF12100C7
:10214000114604F001FE9CE69DF826009DF825103E
:102150009DF824C0CDE901109DF823309DF8211091
:102160009DF822201748CDF800C002F09FFC052002
:102170000DF12101FEF73EFE83E6172003F006FD78
:102180007FE600BFC44E0410577B0420DCB900205A
:10219000A0B90020D44F0410644B0410597B0420D4
:1021A0005A7B0420E4B90020104F04101C4F041087
:1021B00084DE00205B7B04205C7B04208C4F0410B9
:1021C000504F0410984F0410587B042004C604108C
:1021D000202A28BF20221F480DF1270105923BF03D
:1021E0006AFF059A37E71C4A13680133136080F3CE
:1021F00010881A491A4802F059FC02E7194A136874
:102200000133136081F31088D8E6164A136801334E
:10221000136084F31088AFE60F4A1368013313602C
:1022200080F3108810490E4802F040FC29E60A4A63
:1022300013680133136080F310880C49084802F0DA
:1022400035FC63E7074A13680133136080F3108895
:102250002AE700BF8CDE0020D8B90020104F041000
:102260002C4B041064DE0020D44F04108C4F04105B
:10227000F0B5224B05461E6883B09EB10020204B6E
:1022800001E0B0420ED01C68013094F81DC0043348
:10229000AC45F6D11B4EE06A0096276AA6F108030A
:1022A000B84750B92946184802F000FC02211748E7
:1022B00003B0BDE8F040FFF7DBBAB268738806F8F8
:1022C000165C2168CDE900321148338856F8082C95
:1022D00046F80C4C02F0EAFB0320FFF72BFA2468C7
:1022E00020463BF0B8FD2146B368C2B2A6F1140007
:1022F00003B0BDE8F040FFF727BB00BFC0C6041025
:10230000C4C6041018590020F84F041004590020C6
:10231000245004100022024B83F87020FFF78CBB7E
:1023200000590020042802D11378EC2B00D070470C
:102330009378102BFBD100B5032183B01046019296
:1023400019F024FB019A01469279044802F0AEFB91
:102350000022034B1A7003B000BD00BF8050041070
:10236000557B0420042814D108B51378EC2B00D039
:1023700008BD9378122B0DD0132BF9D10B4A0C48C2
:10238000118802F093FB00230A49084A0B7013805E
:1023900008BD70470146104619F0F8FA0146034B94
:1023A00005481980BDE8084002F080BB207B012071
:1023B000E0500410557B0420B8500410042802D1CA
:1023C0001378EC2B00D0704793781A2BFBD15379FC
:1023D000443B082BF7D801A151F823F00124001049
:1023E000C723001001240010C7230010C7230010CA
:1023F000C7230010C72300100F2400100B24001067
:10240000CD2093792BB104F013BFB620F9E7B520A6
:10241000F7E704F037BF00BF1C4800F50053D3F8BE
:10242000FC20816F02EB821200EB0212B2F884C42E
:10243000C2F88814028B02FB0C118167BFF35F8F17
:10244000D3F8FC20013202F00702C3F8FC20D3F8D5
:10245000FC20D3F800C1D3F87411A2EB0C0202F0F7
:102460000702914238BFC3F87421D3F8702193F862
:1024700004110132C3F8702101B170470122817843
:10248000008883F804210DF073BE00BF00590020BE
:102490002DE9F04F04460A2191B019F029FA20469F
:1024A00019F030FA032003F0A9FB06F099FCAA4DBD
:1024B000DFF8C0A2D5E900231A4306460F460AF505
:1024C000005426D0D5E900014BF68032D4F83831DB
:1024D000301A8342DAF8103038BFC4F838010021CE
:1024E000002B08BF1346D4F84C21C4F84001E0FB90
:1024F000032100231046994A3BF0C0FED4F848312E
:102500000344C4F84831D4F85831C4F84C21002BA6
:1025100046D1C5E90067D4F83C310133C4F83C31F9
:1025200002F098F9D4F81031834204D08C4BC4F8EF
:10253000100143E9026702F07BF918B3884B53E9B5
:10254000022352EA030128D08649B21A67EB03033B
:102550008A4273F100032CBF0123002307939AF8EA
:102560003530012B14D103F083FAD4F89831984216
:1025700010D39AF80210BAF8000011B0BDE8F04F7D
:102580000DF0F2BD012307939AF83530012BEAD004
:10259000022B22D011B0BDE8F08F00230793F3E7A0
:1025A000BAF81880B8F1000FB3D003F061FAD4F88C
:1025B000483108EB90009842ABD2D4F84831C4F8C7
:1025C0004801D4F8502113441B1AC4F85031D4F8F0
:1025D00054310133C4F854319BE7BAF818E04FEA9C
:1025E0008E030593013BB3F5806F80F0AF809AF8BE
:1025F0001C30DAF874209A42D4BF0023D31A0D930A
:10260000BEF1000F00F09181D4F84831B3FBFEF326
:10261000DAF82410D4F8402101FB03F35B00002A10
:1026200000F080810020921840EB0005551928BF6A
:10263000012028444C4DA5FB006727F0010606EB5E
:102640005706801B121AA2FB052542F21070834226
:1026500028BF0346934228BF134651EA030200F005
:102660005482994238BF19460023BAF81A200C91B7
:1026700009923E49059ACDE903E33D4D069302EBED
:10268000010BD4F84831039A9A4200F21782D4F829
:10269000FC30D4F800219B1A03F00703072B21D04C
:1026A000D4F8FC909AF81C3009EB89120AEB02125C
:1026B000B2F8821421B9A2F884141946A2F882341F
:1026C000099A002A58D0D31A0D9A0B44934253D931
:1026D000D4F8FC30D4F800219B1A03F00703072B31
:1026E00040F0F580A846D4F86831069A0133C4F862
:1026F0006831D4F84431D318C4F844310023C4F805
:102700000831D8F81830002B40F01181D4F88C3102
:102710000133C4F88C31D4F80831132B7FF63AAF6B
:1027200094F80C31002B7FF435AF079B002B3FF45E
:1027300031AF40F201139AF80210BAF80000A4F881
:102740000C3111B0BDE8F04F0DF010BDD4F82C31B4
:102750000133C4F82C31DEE7307A002040420F000C
:10276000207A0020410D0300ABAAAAAA18DF00209E
:10277000C07E00200059002003F07AF9059B8342B7
:1027800000F2B9801946CA481E4603F02FF9864266
:1027900040F0A181039B002B3BD0D5E900E8D5E9AF
:1027A0000267D5E904010023CDF8289008959946E1
:1027B0001D46BF4A0B94B2F90040B2F9023084EAD8
:1027C000E47C002BACEBE47CC3FB83011FFA8CFCA4
:1027D000B8BF5B429BB2F44584BFE6460125043294
:1027E000434584BF98464FF001095A45C4FB8467AE
:1027F000E1D14B462A46089DDDF82890C5E90267DD
:10280000C5E904010B9C0BB1C5F804800AB1C5F8F9
:1028100000E0AB69039A1344AB6106F0E1FA09EBFF
:1028200089130AEB0312B2F88224DAF80C7002EB77
:102830000313C2F580620632064690B2F96A7C3311
:1028400000909B4A53447F6A0EA8B847BDF83A707F
:1028500006F0C6FAD4F82431801B9842049B88BF46
:10286000C4F824011A18D4F8803104929A429DF8D1
:10287000383088BFC4F88021002B00F039817FB147
:1028800009EB89130AEB0313B3F88224BDF83C105B
:102890001744B3F88424A3F882740A44A3F8842468
:1028A000069B039A0133DBB20693D4F848319B1A96
:1028B000C4F848319DF83E305BB1D4F8FC30D4F810
:1028C00000219B1A03F00703072B3FF40BAFFFF720
:1028D000A3FD0C9B049A93423FF6D3AEA846069AFA
:1028E000D4F864310133C4F86431D4F8443113446A
:1028F000C4F8443102E7D4F86031069A0133C4F8D1
:102900006031D4F84431A846D318C4F84431D4F81F
:1029100020310133C4F82031D4F808310133C4F830
:102920000831EEE642F210728FE6734670E606F06A
:1029300057FAD8E908230D46049152EA030103909F
:1029400040F0A580D8E90401D4F88831D8F81850AF
:1029500001332A46C4F8883100233BF08FFC2A4615
:10296000059000230746D8E902013BF087FC834627
:10297000002800F0A1800023451C43F100036D08EE
:102980004FF0000C8646202645EAC3754FEA5309EE
:1029900012E02A464B46584600213BF06FFC401996
:1029A00049EB0101013EAE46CC464FEA500007D04C
:1029B00040EAC1754FEA5109754579EB0C0CE8D333
:1029C0004FEADE1CBCF1FF0F28BF4FF0FF0C5FFA8F
:1029D0008CFC059B002243B37D1C42F100096D086D
:1029E00045EAC97538462026E3464FEA590912E000
:1029F0002A464B46384600213BF040FC401949EB43
:102A00000101013E4FEA50034A46284607D043EAF7
:102A1000C1754FEA5109854279EB0202E8D3C0093A
:102A2000FF2828BFFF20DC46C7B2D8F80010D8F82E
:102A30000420C909D209FF2928BFFF210023FF2A4A
:102A400028BFFF2261F3070362F30F23194A6CF3D7
:102A50001743116867F31F63481C1060BFF35F8F53
:102A60005360BFF35F8F039B0231C8F82030049B93
:102A70001160C8F8243000230022C8E90033C8F8E8
:102A800018300023C8E90223C8E9042343E64CF2C6
:102A90005031821A65EB03038A4273F10003BFF4DD
:102AA00051AFD4F890310133C4F8903133E600BF10
:102AB00018DF002008DF002084468AE7D4F85C3164
:102AC000069A0133C4F85C31D4F84431A846D318CF
:102AD000C4F8443112E6D4F88431069A0133C4F8BC
:102AE0008431D4F84431A846D318C4F8443105E6FB
:102AF000D4F82C31069A0133C4F82C31D4F844317F
:102B0000A846D318C4F84431F8E5DFF80480E7E6B6
:102B1000C07E0020134A10B51446002382B004344E
:102B2000114882F85C3001F0C1FF94E80300009086
:102B3000ADF80410A18004F0E5FA6846211F0DF0FD
:102B4000D5FA20B90220FEF7F5FD02B010BD01460E
:102B5000064801F0ABFF04212046FEF789FE02B0D3
:102B600010BD00BF00590020085104105851041036
:102B7000042800D070471378F02BFBD12DE9F047E3
:102B800093788EB0013B1A2B5AD8DFE813F003017B
:102B9000C9005900590059001B013E01590060024B
:102BA0001B0059008B025900590053019F01590025
:102BB0005900F0015900590059001C0259005900F0
:102BC00059005C00B44C0021032003F023F804F505
:102BD000005292F80D11B14801F068FF002304F58E
:102BE000005204F58051C2F8FC30C1F8B230C2F88E
:102BF0000031C1F8C234C1F8D238C1F8E23CC2F8A1
:102C0000F23082F80431C2F8083182F80C31C4F88D
:102C10008234C4F89238C4F8A23C02F035FF002395
:102C200004F50052D2F89411084492F80D11C2F83C
:102C3000940184F8351082F80D31002900F092815A
:102C40000EB0BDE8F0870321104618F09FFE924BAE
:102C500082461F461B888342F2D1914B1B689946DE
:102C6000002B5AD04FF000088E4E33681A79002A94
:102C700040F04E8297F82820002A47D0587F0593CD
:102C80000EF0C4F9059B0546002800F0E48397F890
:102C90002A1005930EF020FE97F82B10ADF81C00BB
:102CA00028460EF0C7FD97F82C108DF81E00284618
:102CB0000EF0FCFD97F82D108DF81F0028460EF041
:102CC000E9FD97F82E108DF8200028460EF0D4FD6F
:102CD00097F830108DF8210028460EF039FE97F84D
:102CE0002F108DF8230028460EF03CFE059B8DF832
:102CF0002200597F504697F8292007AB0DF042FA81
:102D000000289DD00146684801F0D0FE08F101037B
:102D10004B45984606F10406A7D1514663486BE03F
:102D200003211046059218F031FE5B4B059A198875
:102D3000814285D1907992F80CC0D8700921104653
:102D40005479CDF81CC018F021FE059A537B92F8F7
:102D50000EC0CDE90803137C517CCDE90AC3D37AB8
:102D600092F80FC0022B0C910CF1FF3C00F086830F
:102D7000042B00F08183013B18BF01235B001C2260
:102D800020460DEB02018DF835C08DF83430FFF789
:102D90006FFA55E74649404FD1F878310133C1F811
:102DA0007831D1F8FC30D1F800219B1A13F00703D9
:102DB00040F08682D1F87C2181F804310132C1F8DB
:102DC0007C213DE703211046059218F0DFFD324BD0
:102DD000059A198881427FF433AF92F806C01046F5
:102DE0000B21547983F803C018F0D0FD0728059A09
:102DF00000F21D8301462F4801F058FE02212E48A3
:102E00000EB0BDE8F047FEF733BD537B002B00F05A
:102E1000BB8119462948059301F048FE1E4A92F8E5
:102E20005C1029B192F85E20059B9A4200F0118354
:102E30000121E4E7537B032110461C461D4618F090
:102E4000A5FD0146002C40F07B82134A92F85C30CD
:102E500017463BB1059002F14C0018F059FD059959
:102E600087F85C5097F870303BB11548059118F021
:102E70004FFD0023059987F870300023114A12484E
:102E8000BB623980C2E9013387F85F3013730EB03B
:102E9000BDE8F04701F00ABE00590020D4550410E7
:102EA000C0C60410C4C60410C85204103C5204101A
:102EB0000079002068530410045900209C5304102A
:102EC00060590020285900201452041000210320CA
:102ED000A14C02F09FFEA14801F0E8FD94F85C309F
:102EE000274633B104F14C0018F012FD002384F89A
:102EF0005C3097F870302BB1994818F009FD002329
:102F000087F87030FEF7E2FB0023964987F85F30C0
:102F100001F58052C2F8FC30C2F8F230C2F800313C
:102F200082F804313B80FB6087F83530C7F8823483
:102F3000C7F89238C7F8A23CC1F8B230C1F8C23421
:102F4000C1F8D238C1F8E23CBB6702F09DFD864A69
:102F5000D2F894C16044C2F8940197F84820002A3E
:102F600040F000820EB0BDE8F04704F0CBB803217A
:102F70001046059218F00AFD774B059A1988814290
:102F80007FF45EAE93F8281000297FF459AE01213A
:102F900083F82810517983F82910D17983F82A1001
:102FA000117A83F82B10517A83F82C10917A83F8D8
:102FB0002D10D17A83F82E10117B83F82F10527BBD
:102FC00083F830203CE603211046059218F0DEFC21
:102FD000614B1F461B8883427FF432AE092105985E
:102FE00018F0D4FC07287FF62BAE97F83130002B71
:102FF0007FF426AE5D49D1F800E0BEF1000F3FF44A
:103000001FAE059AD2F80B100E46B2F80F10884684
:1030100057490868013390F804C00431BCF1FF0F30
:1030200040F0CD818568AE4240F0C981808940453D
:1030300040F0C581012387F83130537987F8323069
:10304000537C87F83330937C87F83430F8E50121DE
:10305000032002F0DFFD002202203F4901F500536A
:10306000C3F8082183F80C21C3F8482181F8350002
:10307000C3F84C21C3F83821C3F87421C3F8802168
:1030800001F0E8FB384BC3F8100105F0A9FE394BFD
:1030900043E9020101F0B6FB37480EB0BDE8F04746
:1030A00001F004BD0021032002F0B4FD334801F01B
:1030B000FDFC0023284991F848200F4681F835305F
:1030C000CB60002A40F0558100232649C7F882349E
:1030D00001F58052C2F8FC30C2F8F230C2F800317B
:1030E00082F80431C7F89238C7F8A23CC1F8B23070
:1030F000C1F8C234C1F8D238C1F8E23CBB6702F073
:10310000C3FC194AD2F894311844C2F8940129E753
:10311000FF2A7FF4FBAD97F83120002A3FF4F6AD8B
:1031200097F83320D10640F1908197F83420D207E8
:1031300040F18B81597F082300935046104B97F83C
:1031400032200DF02BF8014600283FF479AD0D48F0
:1031500001F0ACFCDAE500BF00590020185604105D
:10316000605900200069002000790020C0C60410CA
:10317000C4C60410207A0020BC5504100056041068
:10318000CCC6041038530410BD4CD17A2088059366
:10319000A1700CF0EFFF40F2054118F09FFC059B79
:1031A000618B04F5005504F58052C5F8FC302746C4
:1031B000C5F800316067C4F88234C4F89238C4F8A6
:1031C000A23CC2F8B230C2F8C234C2F8D238C2F857
:1031D000E23CC5F8F23085F80431A367C5F8083140
:1031E00085F80C31002940F0CC800120636AC5F8D5
:1031F000580153B1194601F51C520F32B2FBF1F2DE
:1032000051000131072900F22B819E4C9E49D4F8D0
:1032100038313A8BA1FB031300FB02F29B0903EB4D
:1032200043039B0103F1C00000EB82004FF4905177
:103230009500059318F056FC4FF40051064618F01F
:103240004DFC059B02460093D4F85811C4F8980130
:103250002B468E4801F02AFCD4F89821314696423C
:1032600004D0D4F838318A4801F020FC02F00CFC7C
:103270000346844C796FD4F8942186481344C4F8EB
:10328000943101F013FC844803F0EAFD97F85F10D5
:10329000002900F098800123804887F8353018F025
:1032A00037FB7F497D4818F0FFFA0A217B4818F068
:1032B0001FFB7A4818F026FB012387F84830BFE44B
:1032C000BFF35F8F6F4CD4F800311D4603EB8313BF
:1032D00007EB0311B1F8843401F17C0281F87C30F2
:1032E000D1F88834B1F88214CDE900210022B978F0
:1032F00038880CF041FF00285AD1D4F82831013326
:10330000C4F82831002105EB8513664A1B0103F53B
:103310008F63D150BFF35F8F07F50051D1F80031B3
:10332000013303F00703C1F80031D1F8FC30D1F8C4
:1033300000011B1A13F007036BD181F804317FE4FD
:103340002146594801F0B2FB00224D4B0B2C1A804C
:1033500067D0231FDBB2072B3FF66AAD534A52F802
:1033600023104CE54D4818F0D3FA002387F8483075
:10337000F8E501F1380018F0CBFA002387F848305F
:10338000A2E6227F9042C6BF801AB0FBF1F1194637
:10339000012018F0A7FB3B4A636AC2F85801002BD2
:1033A0003FF433AF00283FF430AF03FB00F122E7D6
:1033B000344AD2F82C310133C2F82C31A2E77345DC
:1033C0007FF427AE3CE40123059187F85F30FEF7D8
:1033D00049F9374B05991B682BB1364BF9681B68C7
:1033E000C91A18BF01212C48FEF7D6F9324818F047
:1033F0008FFA3249304818F057FA4FF4FA612E48E4
:1034000018F076FA2C4818F07DFA012387F870300E
:1034100041E7B97832F80A0C0EB0BDE8F0470CF07D
:10342000A7BE93F85D20002A52D00421E7E492F869
:1034300013C0137D2046022207A98DF81CC08DF809
:103440001D30FEF715FFFFF7FBBB1D4801F02EFBFB
:103450005CE41C4821E6597F1B4801F027FB55E43A
:10346000CDE90103009208231848072201F01EFB52
:10347000044BD3F85801C8E6032380E401237EE41B
:103480000059002000790020D34D6210AC54041084
:103490000C5504108455041004590020385900209C
:1034A000912400100A5900208C510410A0C6041069
:1034B000C0C60410C4C604106059002015230010B3
:1034C000F4520410CC5304109452041020540410ED
:1034D000012240F2DC510E4883F85D2001F0E6FA4B
:1034E0000C4818F015FA0C490A4818F0DDF940F2BA
:1034F000DC51084818F0FCF9064818F003FA0122DC
:10350000064B83F85C2083F85E40FFF799BB00BF51
:10351000C05104104C590020152B001000590020F8
:10352000474BD3F800C01CF0010F07D1BFF35F8FEA
:103530005968BFF35F8F1A6894455BD0D3F800C019
:103540001CF0010F07D1BFF35F8F5968BFF35F8F86
:103550001A6894454ED0D3F800C01CF0010F07D173
:10356000BFF35F8F5968BFF35F8F1A68944541D0EE
:10357000D3F800C01CF0010F07D1BFF35F8F59686B
:10358000BFF35F8F1A68944534D0D3F800C01CF0A5
:10359000010F07D1BFF35F8F5968BFF35F8F1A68C0
:1035A000944527D0D3F800C01CF0010F07D1BFF31A
:1035B0005F8F5968BFF35F8F1A6894451AD0D3F8AC
:1035C00000C01CF0010F07D1BFF35F8F5968BFF334
:1035D0005F8F1A6894450DD0D3F800C01CF0010F1E
:1035E00007D1BFF35F8F5968BFF35F8F1A689445A7
:1035F00000D07047002AFCD010B5124B98B01C6860
:1036000094421AD01A6004460D230420EC460DF1B2
:10361000380ECDE90B030D91BEE80F00ACE80F00AA
:10362000BEE80F00ACE80F009EE803008CE8030042
:103630000BAB20460ECB28F08BFE18B010BD00BFA0
:1036400008DF0020F4DE002070B5224C0546237808
:103650000E4682B07BB1204BD3E90023904271EB40
:10366000030301D202B070BD1C4B1D48198801F044
:103670001DFA002323700DF1070003F0EFFF00286F
:10368000F0D0164B9DF807101888F0B113F024FA0B
:10369000124B9DF807101A8880B901232370114B33
:1036A000DFF834C0EB1846F100040F48CCF80030C6
:1036B000CCF8044001F0FAF902B070BD13460A4696
:1036C00001460A4801F0F2F9CCE7094801F0EEF9A9
:1036D00002B070BD557B0420E8580020207B0120FB
:1036E0004056041060E3160010570410C056041032
:1036F00084560410F0B585B01EF032FF0CF0C2FC09
:103700005C480CF0B3FC5C4B1C68FCB14FF0000E45
:103710005A4D2E1F56F8047FB97B002900F0A48073
:103720000EF1010EA6457AD23246734601E0A3425D
:10373000F0D252F8040F013390F80EC08C45F6D148
:1037400003683A684E4801F0B1F9FEE711F034FF22
:103750004C4811F059FF14F077FD4B4814F080FDF0
:1037600013F0A8F9494813F0B1F915F0ABFB962214
:103770000021474800253AF0FBFC15F0B5FB2B462D
:1037800001460122009542480CF052FC404815F0D9
:10379000CDFB2946C8223F483AF0EAFC15F0A4FBCD
:1037A0002B460146012200953A4814F02BFD39487A
:1037B00015F0BCFB2946C82237483AF0D9FC15F071
:1037C00093FB2B46014602220095334813F04EF935
:1037D000314815F0ABFB2946642230483AF0C8FC6A
:1037E000012515F081FB40F28F4301462A46CDE9C1
:1037F00000552A4814F0A2FE284815F097FB2848E7
:103800001EF07CF828461DF08BFE26481DF06CFD4E
:103810002146254805B0BDE8F04001F047B97FF4E6
:1038200079AF00270DE04BF6803103900DF0FEFFDD
:10383000039811F013F870770FF012FC0137A742CC
:1038400084D055F8046B307F337D32693179019033
:10385000B069009000200CF01DFC0028E3D1134853
:10386000316801F023F9E9E73968114801F01EF9E0
:10387000FEE700BF712B0010C0C60410C4C60410C0
:10388000FC57041065230010BD23001025230010F1
:10389000086E0120686F0120A06E012030700120A9
:1038A00044570410080420006057041044580410C2
:1038B0008C570410034B93F83500003818BF0120D3
:1038C000704700BF0059002030B5184B044693F8EC
:1038D0005C2083B03AB103F14C0018F019F80022D3
:1038E000124B83F85C20002283F85D202068A288B8
:1038F00058600F4DA3880090ADF80420AB8003F012
:1039000001FC6846291F0CF0F1FB20B90220FDF7ED
:1039100011FF03B030BD0146064801F0C7F804218D
:103920002046FDF7A5FF03B030BD00BF00590020C1
:10393000045900205851041010B50D4C94F85C3017
:1039400033B104F14C0017F0E3FF002384F85C303E
:10395000208840B10CF006FC21880246BDE81040EA
:10396000044801F0A3B80448BDE8104001F09EB837
:1039700000590020AC58041074580410F0B5464BA0
:103980000546DA6889B0002A00F0838014681E6A50
:1039900002F06EF8059002F085F803954FF490550B
:1039A00021463E4C01900095D4F820513246059BAB
:1039B0003B48029501F07AF8D4F82461D4F8282124
:1039C000D4F82C310692059302F072F8DDE9053245
:1039D000054631463348009501F068F8D4F83C11AB
:1039E0003148D4F83821D4F8443101F05FF8D4F8E4
:1039F0005021D4F85811D4F854310792D4F8945186
:103A00000691D4F89C61059300F0EEFE074600F0A5
:103A1000F1FEDDE90612CDE90270059B234801960F
:103A2000009501F043F8D4F85C11D4F86821D4F87B
:103A30006031D4F864511E480095D4F88451019542
:103A40001C4D01F033F82968D4F86461B14204D008
:103A500032461948711A01F029F8D4F87011D4F8D7
:103A60007421D4F87831D4F87C012E600090D4F819
:103A700080511248019501F019F8D4F888111048C6
:103A8000D4F88C21D4F8903109B0BDE8F04001F0B1
:103A90000DB80C4C7BE700BF0059002000790020D6
:103AA000F05804104459041084590410CC590410DF
:103AB0005C5A0410F8DE0020C05A0410DC5B0410CD
:103AC0003C5C0410E85804102DE9F047184B88B00E
:103AD0001C6801341C6005F083F9164B8046D3F84E
:103AE0003C21D3F84451D3F82861D3F86471D3F85A
:103AF0005C3189460692079301F0D4FF494682461D
:103B00004FF47A72404600233AF0B8FB07992246F8
:103B1000069C0346CDE9037100200749CDF814A0A7
:103B200002960195009401F011FB08B0BDE8F08702
:103B30009470012000790020905C0410704700BF51
:103B400070B582B0BDF818C00446BCF1C70F19D9D2
:103B50000D4611461A462B4653F8040BC668184604
:103B60000193B0472A6801989368984750B10022A2
:103B70000123C4F801206080204662602370A38086
:103B800002B070BD002320462360636002B070BDA8
:103B90001C2A01D0002070478C462DE9F0410446D4
:103BA0008EB0DCF80820086898464968DCF80C30CC
:103BB0000DF11C0EAEE80F00DCF81000DCF814105C
:103BC000DCF81820261DAEE80700304627F068FD17
:103BD0009DF83430206003939DF83030089F0293A5
:103BE0009DF8353000210093BBB201939DF824204D
:103BF00005689DF828303046A84741F20203A8F82E
:103C00000430236830465B68C8F800709847149AFF
:103C100003461080420092B2511EFF2922D9226829
:103C200030469268059390470122149B58801A7180
:103C3000059B73B1A0FB07414FEAE77C00FB0C1129
:103C4000C9001A4641EA54710023E0003AF016FB1D
:103C500003464FF4487201201499C1E902320EB0B4
:103C6000BDE8F08100210590520005483AF080FA45
:103C70002068044AC368024930469847059BCEE74E
:103C800008E4002040E30020036853B110B5044667
:103C900018463CF05BF920683CF03AF900232360B9
:103CA00010BD704710B50446086886B000B34FF0E9
:103CB000000C114605AA019204AA009203AACDE9BC
:103CC00003CCCDF814C03CF007FD88B9049BC4F8C0
:103CD0000100834260604FF00101D4BF0022012245
:103CE00020466380059B2170A380A27106B010BDA1
:103CF000002320462360636006B010BD022A01D075
:103D0000002070470A88D1B21029F9D1120A012A7D
:103D1000F6D170B5054600681E4684B000283FD035
:103D20003CF014F928684FF0020C4BF68034012364
:103D3000002240F2A721CDE900C43CF0BDF90346C2
:103D4000286843BB4BF680328021326041F2020E7C
:103D50004FF0010C4FF4FA620393089BA6F804E0BD
:103D6000196083F804C0DA603CF098F9011E0BDD9D
:103D70004FF47A7301FB03F3089A0C48936000F048
:103D800095FE012004B070BD094800F08FFE089A2E
:103D9000039B9360F5E73CF0D9F8002004B070BDB8
:103DA0003CF052F828600028BDD1F6E7145D0410FD
:103DB000E05C041080B50E46074600214FF4FA700F
:103DC0001C46154605F0EEF8204A936983BB012393
:103DD0009361D760166155610CB3029BFBB1DB2B7D
:103DE00028BFDB235A1E052A194F25D9791E091B26
:103DF0000229224620D9394623F00305661952F8D4
:103E0000040BB24241F8040BF9D1AB4204D0625D1D
:103E10007A550135AB42FAD80022FA5402E000226A
:103E20000B4B1A7000210A22084605F0FBF8FEE74A
:103E30000021084605F080F9054AE01814F8011B36
:103E4000844202F8011BF9D1E6E700BF00800D4073
:103E500010010020002200B583B003460091024803
:103E60001146FFF7A7FF00BF50524C5008B58C46D3
:103E700086460021054B064A0846DA60C3F810E082
:103E80000A22C3F814C005F0CDF8FEE700800D400B
:103E900044574C505221002200B583B00091024B90
:103EA00011460248FFF786FFD4C604104F4C4C5011
:103EB0000FB400B50021BBB04FF4FA70754605F0A1
:103EC00071F83C9BD3B103AC3DABDC2120463C9A5E
:103ED000029306F07BFFB0F1000C0CDBBCF1DC0FB1
:103EE00028BF4FF0DB0C2346002229460548CDF8B9
:103EF00000C0FFF75FFF4FF0000CF4E7DDF8F0C003
:103F000003ACF0E743434C5004207146084202D012
:103F1000EFF3098001E0EFF3088000F001B800BF83
:103F200000B504468FB000214FF4FA7005F03AF85E
:103F30004FF0E02043F6425E4FF05043D0F8282D7A
:103F4000D0F838CD1B68ADF808E04FEA1C7EBEF112
:103F5000090F94BF0EF1300E0EF1570E8DF80AE0E6
:103F6000CCF3036EBEF1090F94BF0EF1300E0EF1CB
:103F7000570E8DF80BE0CCF3035EBEF1090F94BF32
:103F80000EF1300E0EF1570E8DF80CE0CCF3034E0F
:103F9000BEF1090F94BF0EF1300E0EF1570E8DF8E1
:103FA0000DE0CCF3033EBEF1090F94BF0EF1300ECD
:103FB0000EF1570E8DF80EE0CCF3032EBEF1090F73
:103FC00094BF0EF1300E0EF1570E8DF80FE0CCF3CA
:103FD000031EBEF1090F0CF00F0C94BF0EF1300E52
:103FE0000EF1570EBCF1090F94BF0CF1300C0CF11F
:103FF000570C8DF811C045F2203CADF812C04FF0BF
:104000003D0C8DF814C04FEA147CBCF1090F94BF2D
:104010000CF1300C0CF1570C8DF815C0C4F3036C87
:10402000BCF1090F94BF0CF1300C0CF1570C8DF85A
:1040300016C0C4F3035CBCF1090F94BF0CF1300C43
:104040000CF1570C8DF817C0C4F3034CBCF1090FE9
:1040500094BF0CF1300C0CF1570C8DF818C0C4F360
:10406000033CBCF1090F94BF0CF1300C0CF1570C60
:104070008DF819C0C4F3032CBCF1090F94BF0CF1E7
:10408000300C0CF1570C8DF81AC0C4F3031C606996
:10409000BCF1090FA16904F00F0494BF0CF1300CBE
:1040A0000CF1570C092C94BF303457348DF81C4058
:1040B00020248DF81BC043F64C5C8DF81D40040F86
:1040C000092C94BF303457348DF82040C0F303647A
:1040D000092C94BF303457348DF82140C0F3035479
:1040E000092C94BF303457348DF82240C0F3034478
:1040F000092C94BF303457348DF82340C0F3033477
:10410000092C94BF303457348DF82440C0F3032475
:10411000092C94BF303457348DF82540C0F3031474
:10412000092C94BF303457348DF810E0ADF81EC020
:104130008DF826403D2444F2203C00F00F00092871
:1041400094BF303057308DF82700180F09288DF8AC
:104150002A408CBF00F1570400F13004C3F3036020
:1041600009288DF82B408CBF00F1570400F1300472
:10417000C3F3035009288DF82C408CBF00F157047D
:1041800000F13004C3F3034009288DF82D408CBFA3
:1041900000F1570400F13004C3F3033009288DF80F
:1041A0002E408CBF00F1570400F13004C3F303200C
:1041B00009288DF82F404FF02C0E8CBF00F15704CA
:1041C00000F13004ADF828C08DF830404FF0200CDD
:1041D0000024C3F30310092803F00F038CBF5730EA
:1041E0003030092B8CBF573330338DF831008DF8C8
:1041F0003230054802ABCDF800E08DF833C08DF8C1
:104200003440FFF7D7FD00BF46484C5030B54D4B0A
:104210004D49DA6883B08A4238D0A1F60D718A42DE
:1042200016D001F203518A423DD0A1F2F3618A42D5
:1042300064D001F5AF5111318A424AD0A1F6F5217F
:104240008A4271D00022DA601A615A619A611BE0D9
:1042500019693E485B69019100F028FC3C4800F078
:1042600025FC01993B4800F021FC3B493B4800F00C
:104270001DFC3B4800F01AFC0023324A3649D3604B
:104280001361536193610B7003B030BD2F481A69FD
:104290005B6900F00BFC334800F008FC2E492F4806
:1042A00000F004FCE5E7196928485C69019100F019
:1042B000FDFB2D4800F0FAFB01992C4800F0F6FBBD
:1042C00021462B4800F0F2FB23492A4800F0EEFB80
:1042D000CFE71C691D485D6900F0E8FB264800F047
:1042E000E5FBE0B201F046FC22460146234800F01F
:1042F000DDFB2946224800F0D9FBBAE719691348CB
:104300005C69019100F0D2FB1E4800F0CFFB0199DF
:10431000104800F0CBFB21461B4800F0C7FB0E49BC
:104320000E4800F0C3FBA4E708481A695B6900F077
:10433000BDFB164800F0BAFB0749084800F0B6FB81
:1043400097E700BF00800D4050524C50545D041060
:104350000C5F04106C5E041010010020A45D0410BA
:10436000205F0410885D04109C5E0410B05E041091
:10437000C85E0410D85E0410F05D0410205E0410C6
:104380003C5E0410585E0410905E0410B45D04108E
:104390000048704764C804100048704748C70410BC
:1043A00000B51D4A0346117883B041B363B940F2AA
:1043B00009424FF44173DFF864C0ACF8022017489B
:1043C000ACF8003003B000BD072B1FD8144A52F8D8
:1043D00023000028F6D0DFF844C0002361460138EE
:1043E00003E01F2B21F8022F12D010F8012F013308
:1043F000DBB2002AF5D15B0043F44073DFE70190A4
:104400001121104607F012F8019BCFE70020D9E7F1
:104410004FF45073D3E700BFF47A0120389700209F
:1044200028C70410004870474CC80410002070478B
:10443000704700BF10B54B798C46042B84B004D074
:10444000022B17D0002004B010BDCA78012A38D042
:10445000022AF7D14B78012BF4D1DFF8F0C08DF8A8
:104460000030DCF800200132CCF800206A4608F069
:10447000DBFFE8E7314A8C781368022C03F1010373
:104480001360DFD8CB78012B0FD0022BDAD14A781A
:10449000022A46D0012AD5D1294A32F814C06A46E8
:1044A000ADF800C008F0C0FFCDE74B78012BC9D1B3
:1044B000244A12F804C06A468DF800C008F0B4FF20
:1044C000C1E791F801C0BCF1010F1AD0BCF1020F95
:1044D000B8D1DFF87CE0ADF80020DEF800204BF624
:1044E000803C0132CEF800204FF0000E0E236A46C9
:1044F000CDF802C0CDF806C0CDF80AE008F094FF70
:10450000A1E7DFF850C0DCF800200132CCF8002031
:10451000DFF844C06A46DCF80040009408F084FFED
:1045200091E78646084B6A4693E803000823CDE9E5
:1045300000016146704608F077FF84E7D4DE002072
:10454000AC9A0020A89A002078C804107CDE0020D5
:1045500078DE002074DE00207C46002008B54B7910
:10456000022B18D0042B01D0002008BD204891F860
:1045700001C00368BCF1010F03F101030360F3D133
:10458000CB78012BF0D1CB88042BEDD1194B1268DD
:104590001A60012008BD184891F802C00368BCF1F8
:1045A000020F03F101030360DED84B78012BDBD14E
:1045B000CB78012B13D0022BD6D1CB88022BD3D1B1
:1045C000137851780D4A43EA012322F81C30BCF1DC
:1045D000000FDED1B2F9000002F03AFFD9E7CB8834
:1045E000012BC1D1064B127803F80C20D1E700BF94
:1045F00080DE00207C460020D8DE0020AC9A00201F
:10460000A89A002010B5DFF860C08B88DCF8002085
:104610004988DBB2104CDFF854E00132C9B2012BFB
:10462000CCF8002023708EF8001001D0012010BDBE
:104630000A1E18BF0122094B01291A70F6D1084A37
:1046400013680133136007F0A1FF0028EED0054A7C
:10465000136801331360E9E7627B0420757B042053
:1046600098700120C0DE00209C700120617B042036
:104670008B88DBB2012B01D0012070474B88DBB265
:10468000002BF9D1014A012013707047757B04207B
:104690000023024913700968516070477C4600206E
:1046A000024A136801331360704700BFC8DE002060
:1046B0000848094A0368C02903F10103036013682D
:1046C0000B44136003D0054A1368013313600120C3
:1046D000704700BF48B800204C6701205067012098
:1046E00070B5002008F06AF9D0B10E4EB0F5807FA9
:1046F00028BF4FF4807084B222460B49002008F096
:1047000069F905463368014603440748336001F000
:1047100019F9AC4204D8002008F050F90028E5D17E
:1047200070BD00BF4CB80020F872012008B501F040
:104730009FF9244BDFF8A8C01A68824288BF18602E
:10474000DCF80030204AC01A03EBA013A3F5905008
:1047500002FB00F1CCF800301C4B83FB01C3DFF8F7
:1047600084C0C917C1EBA321DCF800301B1A18481C
:1047700083421FDC17488342B8BF03461EDA124843
:1047800011448142B8BF0146B1F5FA7FA8BF4FF48A
:10479000FA714FF44010CCF8003081FB0001002387
:1047A0000D4A39F061FDBDE8084000F540110020D8
:1047B00008F002BE03464FF4FA72E0E7074A93FBA3
:1047C000F2F2DCE7784600200CFEFFFF398EE3387A
:1047D00080F0FA02800F05FD40420F00A086010024
:1047E000CCDE0020D0DE0020014B1868704700BFEF
:1047F000CCDE00204FF0FF32014B18681A60704782
:104800007846002010B501F033F94FF0FF324FF039
:10481000000C0449044B054C0860C4F800C01A6041
:1048200010BD00BFCCDE002078460020D0DE002086
:10483000014B1878704700BF757B0420014B186846
:10484000704700BF4CB80020014B1868704700BF8C
:104850007C460020014B1868704700BF48B8002014
:10486000014B1868704700BFC8DE0020014B186874
:10487000704700BF4C670120014B1868704700BFAC
:1048800050670120024A136801331360704700BF6C
:10489000ECDE002008B5034B186803F00FF9012087
:1048A00008BD00BF8046002010B504F099FA2C4BDB
:1048B0008446D3E90020104307D02A48ACEB02021B
:1048C000D0F800E0964538BF02600020C3E900C17F
:1048D00001F094F9002124483FF05EFF20B9234AFB
:1048E00013680133136010BD0121214A00201368B1
:1048F0000B44136007F04AFE002104464FF0FF30DE
:1049000007F070F90121002007F040FE844203D037
:10491000184A136801331360012001F06FF9002079
:1049200008F04CF8144A13889BB2984288BF108054
:10493000B0F5107F03D3114A136801331360FFF7FA
:10494000CFFEFFF775FF20B9BDE8104006483FF0E5
:10495000FBBEFFF7EBFEBDE8104003483FF0F4BE9E
:10496000B07E0020F472012050B9002010E6002033
:104970000CE60020C4DE00201E7B012084B900204C
:10498000204A08B5136801331360FFF751FFF8B1EF
:104990001D4A1E49136801331360D1F88C305B0542
:1049A00017D41B4A136801331360FFF753FF194BE9
:1049B0001949D3F800C00A68A2EB0C0202440A604D
:1049C0001A68904218D015490A6801320A601860C6
:1049D00008BDFFF73FFF0F4B0F49D3F800C00A682F
:1049E000A2EB0C0202440A601A689042EBD10C4917
:1049F0000A6801320A60EAE70A490A6801320A6075
:104A0000E5E700BFA8720120BC7201200000105031
:104A1000A4720120AC720120B8720120A0720120A2
:104A2000B0720120B4720120012007F03BB800BF32
:104A300010B5124884B003F059FB012003F002FBCB
:104A40000F4C1049206003F045F82068C02103F0A6
:104A500077FA20680024012103F00AF803F088FDAA
:104A6000DFF82CC008494FF0FF33CDE9014C074A6D
:104A7000009104F0EBF804B010BD00BF50B9002065
:104A800080460020A94800109548001018FCFFFF40
:104A9000F07E0020002101483FF07EBE50B900208A
:104AA00001483FF051BE00BF50B900200FB410B50F
:104AB000E2B064AB53F8042B4FF4C07102A8744603
:104AC000019306F083F9011E08DD40F27F1399423D
:104AD000224628BF194602A800F0F4F962B0BDE8EA
:104AE000104004B0704700BF0FB410B5E2B064AB23
:104AF00053F8042B4FF4C07102A87446019306F0DA
:104B000065F9011E08DD40F27F139942224628BF55
:104B1000194602A800F0D6F962B0BDE8104004B012
:104B2000704700BF30B585B00546FFF793FE0446D9
:104B300000F0F4FA2B46024621461D48FFF7B6FF67
:104B400000231C4D1C4C1D491D4A2B802360096805
:104B50001C481268FFF7AAFF1B4C1C491C4A1D4B3E
:104B60001D48096812681B682468006800941B4C83
:104B7000019024681A480294FFF798FFFFF770FE2F
:104B800001461848FFF792FFFFF770FE0446FFF753
:104B900073FE214602461448FFF788FF00F0C4FA6E
:104BA0000146124805B0BDE83040FFF77FBF00BFA7
:104BB000A45F04101E7B012084B900200CE60020B5
:104BC000A8720120DC5F0410B4720120BC720120C5
:104BD000A0720120B0720120A4720120B8720120DD
:104BE0000C6004107460041094600410D060041011
:104BF0002DE9F04782B081460C46164604F0F0F8E5
:104C0000EFF3108572B6764F764B3A681B6803F562
:104C100000539B1AA342C0F088808246386822461F
:104C2000C0F30C00C0F50058444528BF42466E4B07
:104C300049461844019239F03EFA4445019A6DD82C
:104C4000DFF8B8C14FF0FF3E6346002239682144C7
:104C500039601878194650BBBEF1FF3F12D11F2AA8
:104C600002F1010700F0B780187C964603F11001AD
:104C700000284BD10232202A21D093F82000203383
:104C80001946A0B917460132202A984603F11003AD
:104C900018D01878194650B91E2F07F1020208F1F2
:104CA00020030CD098F8200019460028EAD0496863
:104CB0008E4230D00132202A03F11003C9D1BEF157
:104CC000FF3F0DD0002301210CEB0E12C2E902338D
:104CD0004FEA0E1E56600CF80E1093682344936042
:104CE00085F31088414A13682344136004F078F870
:104CF0003F4AA0EB0A0013683E49034413600B6867
:104D0000984200D9086002B0BDE8F0870B464968B8
:104D10003A468E42CED10CEB0212DEE709EB0201DD
:104D20003148A21A39F0C7F98AE7DFF8D0C04FF04E
:104D3000FF376346002208E00A4659688E4242D097
:104D40000132202A03F1100340D019780029F4D150
:104D5000791C3ED11F2A02F101013FD0174613F8FA
:104D6000102F002AE8D11F299E4601F1010213D01D
:104D700013F8100F0028E0D11E2901F1020225D0FE
:104D80009EF820100EF120030029D6D111461F29CC
:104D90009E4601F10102EBD1012200210CEB071329
:104DA0003F010CF807201A46C3E902115E60D36880
:104DB0002344D36085F310880F4A1368234413609B
:104DC00002B0BDE8F0870CEB0212F0E77B1CF1D0DB
:104DD000E2E71146C7E74FF01F0E73E71F27DBE737
:104DE000F0010020EC010020F401002070DE002022
:104DF00018E6002014E600206CDE0020E8560020B3
:104E00001F4AF8B511681F4B99422AD000231E484B
:104E10001E4C037018461E4923600B6000211D4C78
:104E2000184B206013601C4E1C4B1D4D1D4F1E4C1B
:104E30004FF400721D4831602960396021601960AB
:104E400039F096F900219FED0C7B194A194B82ED40
:104E5000007B19601848194A194B016011601960EC
:104E6000F8BD0121094B0A4C1868074B24681970DA
:104E7000001BD3E7AFF3008000000000000000003B
:104E8000F4210020524C4C50677B0420F00100209C
:104E9000EC0100201CE600206CDE002088B9002018
:104EA00018E6002014E60020BCDE0020E8560020B2
:104EB000987E00204867012068DE002070DE002018
:104EC000B8DE00200B4639B1B1F5005F05D90449C1
:104ED0000A6813440B6070477047FFF789BE00BF34
:104EE0006CDE002000000000F0B57D4D8BB02B681B
:104EF00001332B6003F074FF7A4BD3E9002452EAAC
:104F0000040C0AD04FF0000CDFF808E2821A61EBC3
:104F1000040496457CEB040C5BD200229FED6E7B73
:104F2000C3E90001704B10468DED067B144603F576
:104F3000007C089202E0103363451DD01A78002AE5
:104F4000F9D0002C58D0D4F808E09A68724553D8AC
:104F500000286ED081688A426BD80899002954D005
:104F60008E68B24251D81033634506D01A78002AB1
:104F7000EBD110336345E1D10899002C5CD0D4E922
:104F8000012300285CD0D0E9014C00295CD0D1E994
:104F90000101CDE90201CDF804C00120534900947C
:104FA00000F0D4F82A68524B524D1B682D68DFF888
:104FB00060E10095DEF80050DFF85CC10195DCF897
:104FC00000504D4C0295246802204C49039400F097
:104FD000BDF84B4A4B4D4C4B146829681A68641A4B
:104FE000A24214D21C60FFF755FDD0B9404A1368A5
:104FF000013313600BB0F0BD0022089007940DEB55
:1050000082029361DDE9064095E70222F7E7002C72
:10501000E9D100F0C7F80028ECD0FFF73BFD0028ED
:10502000E4D006F02FFD88B90BB0BDE8F040FFF7E3
:1050300037BD01220890E2E7224623460028A2D18C
:10504000044684460029A2D10846A2E706F022FDC4
:1050500006460028E8D108F07DFBC8B1059000F0B5
:10506000A1F8059BC8B17F2BDED906A8059306964B
:1050700000F0A6F8059B024678B10699304608F084
:1050800049FB0746304608F0FBFA059BDB1B04D1C1
:10509000184A136801331360C6E729681B48C1F337
:1050A0000C01C1F50052A24228BF22469A4228BFF5
:1050B0001A460144002008F02DFB01462B68144AD3
:1050C0000B442B60136800200B44136008F0D8FADF
:1050D000AAE700BFAFF3008000000000000000005E
:1050E000B8DE0020987E0020E8560020F46004100E
:1050F000BCDE0020486701206CDE00203461041013
:10510000F0010020EC01002088B90020F40100200B
:1051100068DE00203F420F0070DE0020014B18685F
:10512000704700BF6CDE0020014B1868704700BF5D
:1051300088B90020014B1878704700BF677B0420B6
:10514000014B1868704700BF1CE60020032800D9F7
:1051500070470EB430B5114A82B002EBC01506ABF1
:105160000446059A7E212846019305F02FFE20EA89
:10517000E0707D28A8BF7D202021C0F17E02284458
:1051800038F0F6FF40F60D210122054BA5F87E1000
:105190001A5502B0BDE8304003B07047A07001203E
:1051A000207F0020054B1A782AB95A781AB99A78C4
:1051B0000AB9D87870470120704700BF207F0020CF
:1051C00000B5DFF85CE0DFF85CC09EF8002002F07C
:1051D00003031CF8031099B9531C03F003031CF8D4
:1051E000031069B9931C03F003031CF8031039B9C9
:1051F000033202F003031CF803200AB9104600BD75
:105200000021064A0CF8031002EBC31202605A1C7C
:1052100002F0030280208EF8002000BDA070012063
:105220006E7B0420207F00200D2867D8322A73F17E
:10523000000110B566D3642A73F1000165D3C82A52
:1052400073F1000164D3B2F5FA7F73F1000162D308
:10525000B2F57A7F73F1000151D3B2F5FA6F73F1B1
:1052600000015BD341F288318A4273F1000158D3C7
:1052700042F210718A4273F1000155D344F6206165
:105280008A4273F1000152D34CF250318A4273F1D9
:1052900000014FD30021DFF8B0C0944571EB030C3F
:1052A0004BD2DFF8A8C0944571EB030C48D2DFF86D
:1052B000A0C09445994128BF4FF00C0C01D24FF08B
:1052C0000D0CDFF890E000EBC0000CEB400C0EEB97
:1052D000C000816B013181635EF82C1001F1010186
:1052E0004EF82C10C16B41F10001C163D0E91041AF
:1052F0009442994138BFC0E9102310BD70474FF068
:10530000040CDEE74FF0000CDBE74FF0010CD8E7B0
:105310004FF0020CD5E74FF0030CD2E74FF0050C2D
:10532000CFE74FF0060CCCE74FF0070CC9E74FF082
:10533000080CC6E74FF0090CC3E74FF00A0CC0E7B2
:105340004FF00B0CBDE700BF9F8601003F0D03002F
:105350001FA10700A07A0020D849D948D1F800C081
:105360002DE9F0470CF101025308A0FB03039B0851
:10537000C3EBC303D34CA2EB43020CEBCC0304EB13
:10538000C30384B00A60D3E90E1051EA000300F0B1
:105390006E824B1840EB00025B1840EB0202D20019
:1053A00042EA5372DB005B1840EB0202DB18524109
:1053B000633342F10002642B72F10005C0F05482A5
:1053C0001D0D45EA0235C5F31306C3F31305354435
:1053D000C2F313263544BC4E05EB1275A6FB0576C9
:1053E000F60806EB860606EB8606AD1B5B1BB74D83
:1053F000B74E03FB05F562F1000206FB0252A3FB68
:10540000063632449B0843EA827392084FF0000A42
:105410000CEBCC0E54F83E7004EBCE0E9F427AEBB0
:10542000020580F03082DEF80450ED194AEB0A08DC
:105430009D4278EB020980F03782DEF8086016EBB7
:10544000050948F10008994578EB020580F03082A3
:10545000DEF80C5015EB090548F100089D4278EB89
:10546000020980F02D82DEF8106016EB050948F184
:105470000008994578EB020580F02A82DEF8145086
:1054800015EB090548F100089D4278EB020980F010
:105490002582DEF8186016EB050948F100089945E9
:1054A00078EB020580F01E82DEF81C5015EB090532
:1054B00048F100089D4278EB020980F01B82DEF87B
:1054C0002060751948F100089D4278EB020980F0D0
:1054D0001582DEF8249019EB050948F1000899457A
:1054E00078EB020580F010820CEBCC0E04EBCE0EB4
:1054F000DEF8285015EB090548F100089D4278EBCD
:10550000020980F00782DEF82C60751948F1000866
:105510009D4278EB020980F00582DEF830E01EEB58
:10552000050E48F100089E4578EB020828BF0C23C1
:1055300080F0AA81DFF89C814B1840EB00025B18D9
:1055400040EB0202520142EAD3625B015B1A62EB5A
:105550000002633342F10002642B72F10005C0F0D7
:105560008E811D0D45EA0235C5F3130EC3F31305F5
:105570007544C2F3132E7544DFF84CE105EB127548
:10558000AEFB059E4FEADE0E0EEB8E0E0EEB8E0E80
:10559000A5EB0E055B1B4D4D62F1000205FB03FE02
:1055A000A5F1CC3505FB02EEA3FB0535AE449B0807
:1055B00043EA8E734FEA9E0E9F427AEB0E0280F012
:1055C0006C810CEBCC0504EBC5056A68D2194AF175
:1055D00000099A4279EB0E0680F06881AE68B21835
:1055E00049F100099A4279EB0E0680F06381EE687A
:1055F000B21849F100099A4279EB0E0680F06281F7
:105600002E69B21849F100099A4279EB0E0680F032
:105610005D816E69B21849F100099A4279EB0E0674
:1056200080F05A81AE69B21849F100099A4279EBCB
:105630000E0680F05581EE69B21849F100099A42D0
:1056400079EB0E0680F054812E6AB21849F10009F8
:105650009A4279EB0E0680F04F816D6AAA1849F1E3
:1056600000059A4275EB0E0980F04C810CEBCC09D9
:1056700004EBC909D9F82860B21845F100059A422F
:1056800075EB0E0680F04881D9F82C60B21845F110
:1056900000059A4275EB0E0680F04081D9F83090F3
:1056A00019EB020245F100059A4275EB0E0528BF81
:1056B0000C2380F0F380DFF81CE00DE008E600200A
:1056C00093244992A07A00201F85EB51F5285C8F26
:1056D000295C8FC23F420F004A1C40F10000931822
:1056E00040EB00059B1840EB050042015D0142EADA
:1056F000D3625B1940EB0200642B70F10002C0F032
:10570000BB801A0D42EA0032C2F31305C3F3130241
:105710002A44C0F313252A44834D02EB1072A5FBE3
:105720000295ED0805EB850505EB8505521B9B1AD7
:105730007E4A7F4D03FB02F260F1000005FB002072
:10574000A3FB053528449B0843EA807380089F42E9
:105750007AEB000280F09C800CEBCC0504EBC505D5
:105760006A68D2194AF100069A4276EB000780F087
:105770009980AF68BF1846F100069F4276EB0002A1
:1057800080F09A80EA68D21946F100069A4276EBD8
:10579000000780F093802F69BF1846F100069F42F2
:1057A00076EB000280F090806A69D21946F100071A
:1057B0009A4277EB000680F08D80AE69B61847F10B
:1057C00000079E4277EB000280F08E80EA69921912
:1057D00047F100079A4277EB000680F087802E6A37
:1057E000B61847F100079E4277EB000280F08880F0
:1057F0006D6AAD1947F100079D4277EB000280F01A
:1058000085800CEBCC0604EBC606B26A521947F150
:1058100000079A4277EB00057AD2F56AAD1847F196
:1058200000079D4277EB00027AD2326B521947F1A2
:1058300000079A42874128BF0C232AD23D480CEB2F
:10584000CC02039104EBC204226C434602923A4A12
:1058500001903A49032052F82C20CDF800E0FFF7E0
:1058600075FC04B0BDE8F08701230022CEE54FF0BF
:105870000008C6464046E2E70123002067E701230F
:105880004FF0000E98E653462D4A52F8238053E617
:1058900000232B4A52F82300D1E70023284A52F86C
:1058A00023E019E70123F4E70123EDE70123F5E7FE
:1058B0000223E9E70223F1E70223EAE70323E8E70B
:1058C0000323E1E70323E9E70423E2E70423E5E711
:1058D0000423D9E70523DCE70523DFE70523D3E726
:1058E0000623DBE70623CFE70623D2E70723D0E72B
:1058F0000723D3E70723C7E70823CFE70823C3E736
:105900000823C6E70923C9E70923BDE70923C0E740
:105910000A23BEE70A23B7E70A23BFE70B23BDE745
:105920000B23B6E70B23AFE71F85EB51F5285C8F00
:10593000295C8FC23F420F0088C8041070610410B8
:10594000C0C80410F9B18A070B4617D147F6FC719D
:1059500030B5214A214C85B0246812682546013AA9
:10596000121B0A40934210D91D49A3EB020C0B688D
:1059700003EB9C030B603AB905B030BD194A1368BC
:10598000013313607047704713460146C5F30E009C
:10599000C0F500449C42224628BF1A460393124B8E
:1059A000CDE90121184438F086FBDDE90121039B94
:1059B0009C4208D3BFF35F8F084AEB18C3F30E0372
:1059C000136005B030BD114407489A1A019338F0AE
:1059D00072FB019BEEE700BFC4720120DCDE0020F9
:1059E00014DF002010DF002020E7002031F0030347
:1059F0002ED01C4A70B514681B4A82B01268121B64
:105A0000C2F30E02934228BF134633F0030302D1C0
:105A1000184602B070BD0646BFF35F8FC4F30E0197
:105A2000C1F500459D422A4628BF1A4601930F4BF7
:105A30000092194438F03FFB019B009AAB4209D811
:105A40001846084A1C44C4F30E04146002B070BD2A
:105A500018467047B01805499A1A009338F02BFB86
:105A6000009BEDE7C4720120DCDE002020E700206F
:105A7000034A044B10681B68C01AC0F30E0070473D
:105A8000DCDE0020C4720120044B054A10681A684D
:105A90001860801AC0F38C00704700BFC4720120E8
:105AA000DCDE0020014B1868704700BF14DF0020C7
:105AB000014B1868704700BF10DF0020704700BF1F
:105AC0000022014B1A7070474C7B04200120704764
:105AD000012901D00120704710B51446908882B08A
