:020000041000EA
:10000000002008205D01001013010010253F0010A2
:100010001101001011010010110100101101001058
:100020001101001011010010110100101701001042
:100030001101001011010010190100101B01001026
:100040001D0100101D0100101D0100101D010010F8
:100050001D0100101D0100101D0100101D010010E8
:100060001D0100101D0100101D0100101D010010D8
:100070001D0100101D0100101D0100101D010010C8
:100080001D0100101D0100101D0100101D010010B8
:100090001D0100101D0100101D0100101D010010A8
:1000A0001D0100101D0100101D0100101D01001098
:1000B0001D0100101D0100101D0100101D01001088
:1000C0001D0100101D0100101D0100101D01001078
:1000D0001D0100101D0100101D0100101D01001068
:1000E0001D0100101D0100101D0100101D01001058
:1000F0001D0100101D0100101D0100101D01001048
:100100001D0100101D0100101D0100101D01001037
:1001100000BE00BE00BE00BE00BE00BEEFF3058004
:10012000103800BEF2EB8871F07C0910147D0910C4
:10013000A801001090A31AE7D3DEFFFF42012110AF
:10014000FF0100004CA70900793512AB4FF0000009
:100150002049086006C881F3088810474FF05040D6
:10016000006810B14FF00000F2E70FA40ECC002998
:1001700002D000F015F8F9E71749184A002000E00E
:1001800001C19142FCD1002080F30A8814498847BC
:10019000144988471449884700BEFDE701C901C2D8
:1001A0009A42FBD3704700BF147D091078220020CB
:1001B000E84D002084A80910000008200000082055
:1001C00084A809100010082000100820000000007A
:1001D0007047000008ED00E0E84D00206C7D042031
:1001E00071AE00104102001069AE0010F8B500BFFA
:1001F000064B0749C91A891048BF0131491003D07D
:10020000044B0BB101481847704700BFE84D002070
:10021000E84D00200000000008B5054B1BB1054962
:100220000548AFF30080BDE80840FFF7E1BF00BF1D
:100230000000000024BA00208850041003F018BE0B
:100240002DE9F04FA9B005F0E1FE04F0E9FD04F05E
:1002500081FF002840F09A820D260C250B24364B96
:1002600012A91B880020ADF848300DF05FFE012078
:100270000BF028FC04F0EAFB0AF028FF40F2DC5007
:1002800008F00AFC2D4804F01FFC2D4804F01CFC6B
:100290002C4F2D4804F018FC05F0DEFE03F0C4FFDF
:1002A0002A4800F089FA0A23092208212848CDE9C2
:1002B0000267CDE9004504F007FC0021234800F067
:1002C000DBFA244804F000FCF02108462CF01EFB69
:1002D0008246002800F061821F4804F0F5FB00F020
:1002E0000FFD1E4804F0F0FB06F08EFF1C4804F0E2
:1002F000EBFB07F08BF81B4804F0E6FB25F06AF8EF
:100300000446002840F09D81174804F0DDFB50466C
:1003100001F068FD05F0BEFC08F072FDCDE90801B2
:1003200004F09AFA27462646D146DFF840B01090EE
:100330000E9406940F94E1E090CE0410F050041057
:1003400014510410C06878043C5104100080084027
:100350007C510410C4510410285204103C52041063
:10036000545204106C520410A45204103F420F0067
:100370000F9BB8EB03080E9B67EB0307C34570EBBD
:100380000707C0F032814FF0000ACDE90A540C95FE
:100390000794CDF834A00C2005F008FC08F030FDDF
:1003A000064648460F4601F049FD08F029FD821B2C
:1003B00061EB0703062004F047FF06F065FE1820F6
:1003C00005F0F4FB08F01CFD0022089B0F46B0EB83
:1003D0000308099B064661EB0303C34572EB030167
:1003E000C0F0418108F00CFDDFF84883821B61EB0F
:1003F0000703072004F028FFD8F800301920013344
:10040000C8F8003005F0D2FB08F0FAFCC14B0F46EB
:10041000D8F80010C04A01FB03F303F11133B2EB2B
:10042000B30F059080F0598108F0EAFC059BC21AD1
:1004300061EB0703082004F007FF08F0E1FCB74B6D
:100440008846D3E9006256EA0201074600F0FD80C3
:100450000021BE1B68EB0202B34571EB02020ED213
:100460001A20C3E9007805F0A1FB304604F068FBD0
:10047000304603F091FA03F035FB04F07DFF08F0FD
:10048000BFFCC21B61EB0803092004F0DDFE1B204A
:1004900005F08CFB08F0B4FC06460F4604F034FD72
:1004A00008F0AEFC821B61EB07030A2004F0CCFECF
:1004B0001C2005F07BFB08F0A3FC06460F4605F068
:1004C0002BFC05F05DFD08F09BFC821B61EB070334
:1004D0000B2004F0B9FE08F093FC401B61EB040113
:1004E000B0F57A5F71F10001C0F0EA800026324673
:1004F00000230C2004F0A8FE2F462646012005F01C
:1005000055FB08F07DFC57EA060305460C4640F013
:10051000A3804FF05042536813F4002340F09980B9
:10052000526812F4001240F09280069B01333C2B7B
:10053000069300F02781022005F038FB08F060FCEC
:1005400006460F4618A8082100F024FC002840F0B9
:10055000BE8008F055FC821B61EB0703002004F00D
:1005600073FE2846214606F0C5FE2146284606F0C1
:10057000A5FF052005F01AFB08F042FC0646484698
:100580000F4600F0D5FF08F03BFC821B61EB070330
:10059000022004F059FE062005F008FB08F030FCAC
:1005A0002A460646234648460F462CF06CFC08F0C7
:1005B00027FC821B61EB0703032004F045FE48463D
:1005C00002F0BCFF48462CF008FA0646B0FA80F06C
:1005D000400900F029FB08F013FC804648460F460E
:1005E0002CF0F1F900283FF4C3AE002E7FF4CBAE1F
:1005F000CDE91366CDE91566179608F001FC824631
:100600000720884605F0D2FA484613A92CF0B6FB1D
:1006100008F0F6FBB0EB0A0A61EB08030A905246B9
:1006200004200B910D9304F00FFE149921B1159A3B
:10063000B2F5614F00F0808008F0E2FB0C9007916A
:10064000A9E6374804F040FAFEE7002608E70693DB
:1006500071E7002306936EE7C21B61EB06030D20D2
:1006600004F0F2FD55E7089304F0F6F8059004F065
:10067000EDF8002849D0109A059B9B1A099304F0C5
:10068000F1F8099B109027484246A3FB0001089B04
:1006900011933EF02FFA4FF47A72002308901199CB
:1006A00040463EF027FADDE90823CDE90001109924
:1006B0001D4804F009FA059BCDE90867109391E6FF
:1006C000C0F57A563046002108F07AF90FE7024665
:1006D00018A948462CF08BF93BE7DDE90C63701B49
:1006E00002900798524660EB040E30460A9ECDF801
:1006F0000CE0B0EB060807980B9E60EB060CCDE90A
:10070000008C0A4804F0E0F98EE60599084804F0E8
:10071000DBF9D0E7EFEEEEEE44444404A87E00207F
:100720008052041040420F00BC5204105053041079
:1007300014530410989C0020139B012B31D1BDF859
:100740005A30002B3FF478AF0846F0213246179E0E
:100750007388F688CDE9001600F078F908F050FBB0
:10076000CDE90E1008F04CFB03460A9A0C939A1A36
:100770000B4607910B994FF0050063EB010304F062
:1007800063FD08E61146104608F0E6FC04F0E8FCBC
:100790000146064804F098F95EE5054804F094F92E
:1007A000FEE7044800F032FAD8E700BFA05004107A
:1007B000045204100080084038B52B4C20600820FB
:1007C00007F036F808234FF0010242EC44300920CC
:1007D00007F02EF809234FF0010242EC443042ECBE
:1007E00040300C2007F024F80C234FF0010242ECBB
:1007F00044300D2007F01CF80D234FF0010242ECAD
:1008000044304FF0000242EC40300A20012106F053
:1008100051FF01210B2006F04DFF144920680DF017
:1008200097FE12490246124804F04EF922684FF032
:10083000020E134653F8041F02F5805403F5405C82
:10084000CCF800E0126803F5005382F0070201EAD9
:100850000E0102F0CF022260012019600DF0FCFEB3
:10086000044B186038BD00BFB4740120C068780420
:1008700084530410084600202DE9F043894685B0D2
:100880000C25012444EC40500A2008F005F94FF0F3
:10089000000646EC40500A2008F0FEF844EC4050B8
:1008A000782008F0F9F809278DF80C4046EC4070E4
:1008B0004FF0080846EC4080634D2246286803A9A3
:1008C00044F0BAFB44EC4070962008F0E5F81123A0
:1008D0008DF80C3046EC407046EC4080224628688B
:1008E00003A944F0A9FB44EC4070782008F0D4F848
:1008F00055238DF805303A238DF80C3046EC4070C6
:1009000046EC40802246286803A944F095FB44EC5D
:100910004080224628680DF1050144F08DFB44EC2F
:10092000407060238DF8063036238DF80C3046EC8D
:10093000407046EC40802246286803A944F07CFBC6
:1009400044EC4080224628680DF1060144F074FB17
:1009500044EC407021238DF80C3046EC407046EC9E
:1009600040802246286803A944F066FB44EC4070AE
:100970004FF06F432A2202938DF80C2046EC407012
:1009800046EC40802246286803A944F055FB44EC1D
:100990004080042228680DEB080144F04DFB44EC34
:1009A00040704FF06F4303932B238DF8073046ECD4
:1009B000407046EC4080224628680DF1070144F063
:1009C0003BFB44EC40800422286803A944F034FB3C
:1009D00044EC407046EC407046EC40802C232246AC
:1009E00028680DF107018DF8073044F025FB44EC31
:1009F00040804FF4614499FA99F3ADF80C3002222B
:100A0000286803A944F018FB013CF8D109274FF0EE
:100A1000010646EC407029238DF8083044EC407004
:100A2000082344EC4030012228680DEB030144F018
:100A300003FB46EC4070142008F02EF80D2346EC22
:100A4000403005B0BDE8F083B47401202DE9F04FCB
:100A500087B00090082016461D468B46BDF84040E2
:100A6000BDF844A005F0A2F82A230021320A8DF82F
:100A70001430631E334462F3070166F30F21C3F39E
:100A8000072262F317419BB263F31F610AF1FF3340
:100A90002B449BB20491019309264FF0000848ECC7
:100AA0004060082748EC4070544C0122206805A99A
:100AB00044F0C2FA4FF0010949EC4070042220686A
:100AC00004A944F0B9FA49EC40602B210022019BB3
:100AD0008DF80F1025FA07F161F3070265F30F2275
:100AE00023FA07F161F3174263F31F62059248ECA2
:100AF000406048EC4070012220680DF10F0144F085
:100B00009BFA49EC40700422206805A944F094FA4D
:100B100049EC40600BFB05F3009A0BFB0AF502EB76
:100B2000430A48EC406048EC40702C2301222068C6
:100B300005A98DF8143044F07FFA49EC4070226822
:100B40002F4913468A4214BF4FF4401C4FF4501CE7
:100B50004FF0020E2B4F304639682B4E06EA4136D5
:100B600053F8041F46EA0C0601EA0E0C03F5405147
:100B7000C1F800E0116803F5005381F00F0102F5A0
:100B8000805201F0CF011160C3F800C005F00EF8EB
:100B90003A682368920102F1A04246F01506083334
:100BA000C2F800A053609560D66013695901FCD467
:100BB0000A2004F0FBFF2268D368DB06FCD409237B
:100BC0004FF0010141EC40301346022653F8041F58
:100BD00002F5805403F540552E601268314082F0D2
:100BE000070203F5005302F0CF0222600B201960C8
:100BF00004F0DCFF07B0BDE8F08F00BFB474012043
:100C00000080084008460020FFFF01FC4FF0F00C78
:100C1000002300B583B008461A466146CDE900CCF2
:100C2000FFF714FF03B000BD0D2340EC40307047C8
:100C30002DE9F0474FF050444FF0010E294A2A4861
:100C40002A492B4D2B4F2C4E02F1120C13781F2BDF
:100C500092BFD4F80480D4F80880203B0EFA03F346
:100C600013EA080F14BF4FF001084FF000080B788B
:100C70005B00B8F1000F11D043F00103DBB2FF2B92
:100C80000B7001D1002303700232624500F10100B4
:100C900001F10101DAD10120BDE8F087DBB20B7070
:100CA000002BF1D103789BB92B7897F800A003F1C2
:100CB000010909F01F09CA45DBB20BD085F8009085
:100CC00092F8019046F8339006EBC303A3F8048032
:100CD0000123D8E7DFF82480D8F800300133C8F8C2
:100CE0000030F5E794CE0410A0E00020D4E000200E
:100CF0005C7D04205E7D042014E80020346901201E
:100D00002DE9F04700244FF0FF0AA046184F194E76
:100D1000DFF87C9084B019F81450284606F088FD5E
:100D20004FF0000343EC44500022012128460134D7
:100D300006F0DEFC092C07F801AF06F8018FEAD1B6
:100D40000D490E4A0E4B81F800800E4C82F800804F
:100D5000C3F8008007F01CFC0B494FF0FF33CDE9CE
:100D600001840A4A009107F081FF04B0BDE8F087D2
:100D7000D3E000209FE000205C7D04205E7D042005
:100D800034690120087F0020310C001018FCFFFF9F
:100D900094CE04102DE9F0430E4609B30746002215
:100DA000114DDFF84890DFF8488008E001329642A4
:100DB00093E8030085F800C084E8030010D095F89C
:100DC00000E099F800105FFA8EF303F1010C714511
:100DD00007EBC20408EBC3030CF01F0CE6D1164668
:100DE0003046BDE8F08300BF5E7D04205C7D0420BA
:100DF00014E8002030B584460D46EFF3108472B637
:100E0000DFF8A0E0204A9EF8003011785A1C02F06A
:100E1000070291422AD024201C49DBB220FA0CF0B0
:100E2000C3EBC303C00701F803C010D4184B8EF8FE
:100E300000201A6801321A6084F310881A68154B72
:100E4000154853F82C10BDE8304003F03DBE8EF835
:100E500000202A680133CA50AA880B449A800C4BA0
:100E60001A6801321A6084F31088E7E70B4A1368A6
:100E70000133136084F31088064B094853F82C1093
:100E8000BDE8304003F020BE4C7D042094BB002020
:100E9000D0BB0020A8CE0410E4530410CCBB00202B
:100EA000AC5304104B7D04202DE9F043044664212B
:100EB00083B01BF059F9DFF8E4802046304C1BF07A
:100EC0005DF9022004F0AAFE227898F800309A42D8
:100ED00035D02C4F2C4E2D4DDFF8C4902378C3EB2A
:100EE000C3020133B85803F0070323703168BB18FD
:100EF00000909A7998889DF8003001313160052B77
:100F000098BF59F82310ADF804008DF8062088BF6B
:100F1000294632681E4803F0D7FD9DF80030052BA6
:100F200008D8DFE803F0191325222A030DF1010088
:100F300005F0FCFF227898F800309A42CED107F0F5
:100F40005FFF03B0BDE8F04302F08CBB114803F033
:100F5000BBFD21F071F9EDE718220A210E4803F0DC
:100F6000B3FD082021F04AF9E4E702F0F3FCE1E7E1
:100F70000DF1010002F0B6FCDCE705F03BFFD9E71C
:100F80004C7D042094BB0020D4BB0020A0C20410E0
:100F900020540410805404105C5404104B7D042031
:100FA000A8CE041000000000042841D12DE9F04F24
:100FB0001D4613781446602BE9B000F0ED8038D858
:100FC000032B00F094810E2B5BD1032110461BF004
:100FD00019F9814B1B88834253D16B1F2E467F48E2
:100FE0009DB22F4603F070FD002D00F06E82B31FFE
:100FF00014FA83F326465D1D043414F8011F784863
:1010000003F062FDAC42F8D1764803F05DFD082F95
:1010100040F25E82B1897289707AB6F80730CDE904
:101020000121B279717900906F4803F04DFD28E0FD
:101030007047DC2B28D0DD2B23D109906B4803F0BF
:1010400043FDDDF8C4E0EFF3108C72B668486949DF
:1010500003780C78591C01F01F01A142099ADBB2F8
:1010600000F088814FF492740170002104FB03F3B7
:101070006148C2500344C3E90111C3F814E08CF382
:10108000108869B0BDE8F08F06220EA9A01C1BF0E5
:1010900039F9A37B002B40F04F811F469946637EB0
:1010A000002B40F04E811E461D469B460DF1B00AB6
:1010B000204609211BF0ACF89DF83D300446029310
:1010C0009DF83C309DF8392001939DF83B309DF808
:1010D00038100490009349489DF83A3005950397DD
:1010E000CDF818A003F0F0FC262200210DF14E00EF
:1010F0003DF07AFCDDE90E019FED357B8DED107B37
:101100001290ADF84C108DF85890179415960DF17B
:10111000780C0DF1400EBEE80F00ACE80F00BEE801
:101120000F00ACE80F00BEE80F00ACE80F00DEF8DF
:101130000030CCF80030EFF3108372B61D462C4B14
:101140002C4A99461B781278591C01F01F019142D4
:101150000F46DBB200F015814FF492728DED1E7BCD
:1011600002FB03FE244B239603EB0E0C1EAC0FCCAC
:10117000ACE80F000FCCACE80F000FCCACE80F00D0
:101180002368CCF80030BBF1000F40F0EA8089F80A
:10119000007085F3108874E79378022B7FF471AFA9
:1011A000174803F091FC0C481DF09AF905F026FD54
:1011B0000B90002800F0EC800E4B4FF0000BDFF896
:1011C00030900A931EAF0DF1B00A3DE0AFF30080FE
:1011D0000400000001000000C4D50410C454041031
:1011E000108D0410105604103C55041014560410B1
:1011F0004D7D04204E7D0420D8BB0020C055041036
:10120000A0540410099A042138920A22CDE92C1224
:101210004FF492725546B549319402FB03148DF890
:10122000DEE00FCD0FC40FCD0FC40FCD0FC42B6860
:1012300089F800C0236086F310880B9A0BF1010334
:1012400093429B4600F0AB800DAB009310AA0DF1CA
:1012500033030EA95FFA8BF005F0ECFC00230420A9
:101260000A21D4463D4687F82F300D9ECDE91E0158
:10127000DDE90E019DF833E010AC2090ADF884104C
:101280000FCCCDF88600CDF88A10CDF88E20CDF8A1
:1012900092300FCCCDF89600CDF89A10CDF89E2064
:1012A000CDF8A23087F82EE03E6309960FCDACE86A
:1012B0000F000FCDACE80F000FCDACE80F002B688E
:1012C0007C69CCF80030EFF3108372B61E460A9AA0
:1012D00099F80030127803F1010C0CF01F0C9445C2
:1012E000DBB28FD1824A136801331360A3E7501D2C
:1012F0002CA9957809931BF011F8099920461AF04A
:1013000081FF0346227BE47A0692CDE904349DF8FE
:10131000B5209DF8B4309DF8B340CDE902329DF878
:10132000B2202946CDE9002472489DF8B1309DF8DD
:10133000B02003F0C9FBA4E694F90F3099461F468C
:10134000ADE6A37E2CA8F02B28BFF02304F11B01EF
:101350001A461D469B461E460DF1B00A3DF0E7FABF
:10136000A6E6624B0EF134003246514618443DF079
:10137000DEFA0CE75E4A1368013313608CF31088C1
:101380007FE65B4A13680133136085F3108878E6C3
:10139000594BDFF874910A931EAF0DF1B00A05F0B6
:1013A00027FC319CEFF3108172B699F800300A9A4D
:1013B00092F800C05A1C02F01F026245DBB200F036
:1013C000AE8089F800204FF492724FF0040E4FF077
:1013D000090C02FB03F3454A42F803E013440B9A5D
:1013E000C3F804C018725A725C6181F310883C46DD
:1013F000DFF818E1D446BEE80F000FC4BEE80F00C6
:101400000FC4BEE80F000FC4DEF800E0C4F800E02F
:101410003C460FCCACE80F000FCCACE80F000FCC73
:10142000ACE80F00CCF800E0EFF3108E72B699F83C
:1014300000300A9A11785A1C02F01F028A42DBB26D
:1014400066D089F800204FF492720021D446274CD0
:10145000319102FB0344BCE80F000FC4BCE80F004D
:101460000FC4BCE80F000FC4DCF8003023608EF31B
:101470001088319CEFF3108172B699F800300A9A07
:1014800010785A1C02F01F028242DBB227D04FF4C0
:10149000927C4FF0040E0CFB03F389F80020134AF2
:1014A000012042F803E0134400225C61C3E90120FB
:1014B00081F3108818220A21104803F005FB082048
:1014C00069B0BDE8F04F20F099BE0D4803F0FCFA7A
:1014D00039460C4869B0BDE8F04F03F0F5BA044A4C
:1014E00013680133136081F31088E3E7D8BB002051
:1014F00058E000202C5604104E7D04205C5404104B
:1015000010560410F85404104D7D0420C0CE041071
:10151000064A1368013313608EF31088A9E7034A63
:1015200013680133136081F3108860E758E00020EE
:101530002DE9F04F2B4EDFF8C080327898F800305C
:101540009BB09A420B903FD04FF49279264F0DAD4D
:10155000AC4696F800A009FB0AFE07EB0E04D4F88F
:1015600004B00FCCACE80F000FCCACE80F000FCCF0
:10157000ACE80F002368BBF1010FCCF800306C46DB
:101580005FFA8AFA0DF1400C04D10EF1340E07EB2C
:101590000E031193BCE80F000FC4BCE80F000FC48A
:1015A0009CE8030084E803000AF1010A95E80E00B4
:1015B0000B980AF01F0A2BF007FB86F800A0327880
:1015C00098F800309A42C3D1084B094D1C682B682B
:1015D000A34204D02146074803F076FA2C601BB0E2
:1015E000BDE8F08F4E7D0420D8BB002058E00020DD
:1015F000E4E00020AC5604104D7D042070B5164682
:10160000EFF3108572B6134B1B7833B10C460622EC
:10161000014611483DF021F830B14FF0000C86F83A
:1016200000C085F3108870BD0C4BDFF834E093F8F0
:1016300000C0BEE80F0020606160A260E360BEE809
:101640000F0020616161A261E36186F800C085F34B
:10165000108870BD507D042078E000204F7D04206C
:1016600080E0002000B58FB0DDF818E0EFF3108CBB
:1016700072B6124912480B780078DAB2013303F0DF
:101680001F03834212D00B704FF4927302FB03F3DB
:1016900004220C490320CA5000220B44C3E9012054
:1016A000C3F814E08CF310880FB000BD064A13682D
:1016B000013313608CF310880FB000BD4D7D042002
:1016C0004E7D0420D8BB002058E0002000B58FB02C
:1016D000DDF818E0EFF3108C72B6124912480B785F
:1016E0000078DAB2013303F01F03834211D00B708C
:1016F0004FF4927302FB03F3042200210B48C25003
:101700000344C3E90111C3F814E08CF310880FB04F
:1017100000BD074A1368013313608CF310880FB0C3
:1017200000BD00BF4D7D04204E7D0420D8BB0020AD
:1017300058E0002010B58EB0069CEFF3108E72B604
:101740001149124A0B7892F800C05A1C02F01F028D
:10175000624510D04FF4927C0A700422DBB20CFB7D
:1017600003F30B49CA500B44C3E901205C618EF3BB
:1017700010880EB010BD074A1368013313608EF352
:1017800010880EB010BD00BF4D7D04204E7D04209A
:10179000D8BB002058E0002030B59DB004460D466F
:1017A000252200210DF10F003DF01EF99FED2A7B4F
:1017B000EE468DED007B2068A3880290ADF80C30DA
:1017C0008DF80E500DF1380CBEE80F00ACE80F009C
:1017D000BEE80F00ACE80F00BEE80F00ACE80F0059
:1017E000DEF80030CCF80030EFF3108472B61C48FD
:1017F0001C4A037892F800C0591C01F01F01614592
:1018000022D001704FF492708DED0E7B0021DAB280
:10181000154B8DF8465000FB023C0DF1380E13912C
:10182000BEE80F00ACE80F00BEE80F00ACE80F0008
:10183000BEE80F00ACE80F00DEF80030CCF8003056
:1018400084F310881DB030BD084A1368013313605B
:1018500084F310881DB030BD0400000006000000B5
:101860004D7D04204E7D0420D8BB002058E0002090
:1018700030B59DB004460D46262200210DF10E0024
:101880003DF0B2F89FED2A7BEE468DED007B20689F
:10189000A3880495ADF80C3002900DF1380CBEE829
:1018A0000F00ACE80F00BEE80F00ACE80F00BEE888
:1018B0000F00ACE80F00DEF80030CCF80030EFF39A
:1018C000108472B61C481D4A037892F800C0591C57
:1018D00001F01F01614520D001704FF492708DED31
:1018E0000E7B0021DAB2164B0DF1380E00FB023CE4
:1018F0001391BEE80F00ACE80F00BEE80F00ACE8A3
:101900000F00BEE80F00ACE80F00DEF80030CCF8A6
:10191000003084F310881DB030BD0A4A13680133CB
:10192000136084F310881DB030BD00BFAFF300809A
:1019300004000000030000004D7D04204E7D0420C3
:10194000D8BB002058E0002070B515469CB0044676
:101950000E46262200210DF1160001933DF044F8B9
:10196000102D2A469FED2E7B28BF1022019B314669
:101970000A932068A38804900DF11600ADF8143086
:101980008DF826208DED027B3CF0D1FF0DF13C0C53
:101990000DF1080EBEE80F00ACE80F00BEE80F0026
:1019A000ACE80F00BEE80F00ACE80F00DEF8003036
:1019B000DDF81CE0CCF80030EFF3108472B61A4A60
:1019C0001A4913780978D8B2013303F01F038B4208
:1019D0001DD013704FF49272154BCDF850E002FBFE
:1019E000003C0DF13C0EBEE80F00ACE80F00BEE875
:1019F0000F00ACE80F00BEE80F00ACE80F00DEF807
:101A00000030CCF8003084F310881CB070BD094A57
:101A100013680133136084F310881CB070BD00BFDD
:101A200004000000080000004D7D04204E7D0420CD
:101A3000D8BB002058E0002030B59BB0EE46254CC6
:101A40000DF1340C0FCCAEE80F000FCCAEE80F0058
:101A50000FCC25686C46AEE80F00CEF800500FCCD6
:101A6000ACE80F000FCCACE80F000FCCACE80F00D7
:101A7000CCF80050EFF3108572B6174917480B7871
:101A800000785A1C02F01F0282421AD00A704FF4EA
:101A900092720021124CDBB202FB03440DF1340CB4
:101AA0001291BCE80F000FC4BCE80F000FC4BCE8E3
:101AB0000F000FC4DCF80030236085F310881BB0E2
:101AC00030BD084A13680133136085F310881BB0DA
:101AD00030BD00BFF4CE04104D7D04204E7D0420A7
:101AE000D8BB002058E000209FED397BF0B50646BA
:101AF00000209DB08DED007BEE461D460C930B68DB
:101B00008DF82F00CDF80E304B683068CDF81230CC
:101B10008B680290CDF81630CB680DF1380CCDF8FB
:101B20001A30B3888DF82E20ADF80C300B691446AE
:101B3000CDF81E304B69CDF822308B69CDF82630B8
:101B4000CB69CDF82A30BEE80F00ACE80F00BEE844
:101B50000F00ACE80F000F46BEE80F00ACE80F0026
:101B6000CCF80050EFF3108672B61B481B4A03787E
:101B700092F800C0591C01F01F01614520D001708E
:101B80004FF492718DED0E7BDAB2154B1A9501FB75
:101B9000023C8DF866400DF1380EBEE80F00ACE84F
:101BA0000F001397BEE80F00ACE80F00BEE80F006F
:101BB000ACE80F00CCF8005086F310881DB0F0BDE3
:101BC000084A13680133136086F310881DB0F0BD16
:101BD000040000000A0000004D7D04204E7D04201A
:101BE000D8BB002058E0002010B59CB00446262247
:101BF00000210DF10E003CF0F7FE9FED297BEE4633
:101C00008DED007B2068A3880290ADF80C300DF1BB
:101C1000380CBEE80F00ACE80F00BEE80F00ACE8DF
:101C20000F00BEE80F00ACE80F00DEF80030CCF883
:101C30000030EFF3108472B61B481C4A037892F808
:101C400000C0591C01F01F01614520D001704FF404
:101C500092708DED0E7B0021DAB2154B0DF1380E2E
:101C600000FB023C1391BEE80F00ACE80F00BEE899
:101C70000F00ACE80F00BEE80F00ACE80F00DEF884
:101C80000030CCF8003084F310881CB010BD094A35
:101C900013680133136084F310881CB010BD00BFBB
:101CA000040000000B0000004D7D04204E7D042048
:101CB000D8BB002058E0002030B59BB0EE46254C44
:101CC0000DF1340C0FCCAEE80F000FCCAEE80F00D6
:101CD0000FCC25686C46AEE80F00CEF800500FCC54
:101CE000ACE80F000FCCACE80F000FCCACE80F0055
:101CF000CCF80050EFF3108572B6174917480B78EF
:101D000000785A1C02F01F0282421AD00A704FF467
:101D100092720021124CDBB202FB03440DF1340C31
:101D20001291BCE80F000FC4BCE80F000FC4BCE860
:101D30000F000FC4DCF80030236085F310881BB05F
:101D400030BD084A13680133136085F310881BB057
:101D500030BD00BF28CF04104D7D04204E7D0420EF
:101D6000D8BB002058E00020EFF3108C72B6154964
:101D700015480B7800785A1C02F00702824216D0F0
:101D800000B54FF0040E0A70104A11481168DBB21A
:101D9000C3EBC3030131116000F803E08CF310883A
:101DA0000C4912680C485DF804EB02F08DBE0B4A3A
:101DB0001368013313608CF310880649084802F059
:101DC00083BE00BF4B7D04204C7D0420D0BB00208F
:101DD00094BB0020E4560410E4530410CCBB002054
:101DE000AC53041010B5044604F09AFD022020F014
:101DF00061FA0D4B0D4843601BF0C6FF204601F011
:101E000087FC0B490B481AF08BF9642109481AF03A
:101E1000ABF908481AF0B2F9074802F055FEBDE8E0
:101E2000104001201FF0AABEA90F0010FCA3002043
:101E3000A90E0010D8740120F456041030B5ADB0CE
:101E400005900D2003F0B2FE059907A82AF03CFE8C
:101E50000E2003F0ABFE079902290ED19DF8203029
:101E6000072B00F28A81DFE813F032003600D00041
:101E70002B01880155016F010E000222C14802F0BA
:101E800023FE2DB030BDEFF3108072B6BE49DFF8EF
:101E900038C30B789CF800C05A1C02F00702624558
:101EA000DBB200F0B9814FF0030C0A70B74AC3EB04
:101EB000C303116801311160B54901F803C080F313
:101EC0001088B4491268B44802F0FEFDD9E70F202B
:101ED00003F06CFED5E7102003F068FEDFF8ECC2DB
:101EE0000DF1480EBCE80F00AEE80F00BCE80F0093
:101EF000AEE80F00BCE80F00AEE80F00DCF80050C1
:101F000012AC0DF17C0CCEF800500FCCACE80F00F9
:101F10000FCCACE80F000FCCACE80F00CCF80050B1
:101F2000EFF3108372B61C469C4B1B78591CDAB237
:101F30009B4B01F01F011B78994200F06681974B83
:101F40000DF17C0E197000234FF492712493954B80
:101F500001FB023CBEE80F00ACE80F00BEE80F003A
:101F6000ACE80F00BEE80F00ACE80F00DEF8003070
:101F7000CCF8003084F31088DDF890C0EFF31081C6
:101F800072B6864B864A1B7810785A1C02F01F02E4
:101F90008242DBB200F032814FF4927E04240EFBC9
:101FA00003F37E4802707F4A0120D450134400227C
:101FB000C3F814C0C3E9012081F31088EFF3108047
:101FC00072B67149DFF800C20B789CF800C05A1C49
:101FD00002F007026245DBB200F005814FF0000C11
:101FE0000A706A4AC3EBC303116801311160684982
:101FF00001F803C080F310886B491268664802F04C
:1020000063FD112003F0D2FD3BE7122003F0CEFD6B
:102010009DF826109DF825209DF824C0CDE90121CA
:1020200062489DF822209DF823309DF82110CDF8BC
:1020300000C002F049FD9DF84720EFF3108372B60F
:102040001C46DDF821005A4BBDF825101860998018
:10205000002A40F0BD800121564B1A70564B197072
:1020600084F31088DDF890E0EFF3108072B64B49EE
:102070004B4A0B7892F800C05A1C02F01F026245CE
:10208000DBB200F0DF804FF4927C04240CFB03F3FE
:102090000A70444A0221D45013440022C3F814E0C9
:1020A000C3E9012180F31088132003F07FFD022093
:1020B0000DF12101FEF79EFE142003F077FDE0E60E
:1020C000152003F073FDEFF3108072B62E49DFF890
:1020D000F8C00B789CF800C05A1C02F00702624559
:1020E000DBB200F0A4804FF0010C0A70274AC3EB6A
:1020F000C303116861441160254901F803C080F3EE
:1021000010882E491268244802F0DEFC162003F0E5
:102110004DFDB6E69DF826009DF825109DF824C0DB
:10212000CDE901109DF822209DF821109DF8233063
:102130002348CDF800C002F0C7FC00220DF12100B9
:10214000114604F011FE9CE69DF826009DF825102E
:102150009DF824C0CDE901109DF823309DF8211091
:102160009DF822201748CDF800C002F0ADFC0520F4
:102170000DF12101FEF73EFE83E6172003F016FD68
:102180007FE600BF445704104B7D0420D0BB0020E5
:1021900094BB002054580410E45304104D7D0420D7
:1021A0004E7D0420D8BB0020905704109C5704108B
:1021B00078E000204F7D0420507D04200C5804104E
:1021C000D0570410185804104C7D0420C0CE0410C1
:1021D000202A28BF20221F480DF1270105923CF03C
:1021E000A6FB059A37E71C4A13680133136080F396
:1021F00010881A491A4802F067FC02E7194A136866
:102200000133136081F31088D8E6164A136801334E
:10221000136084F31088AFE60F4A1368013313602C
:1022200080F3108810490E4802F04EFC29E60A4A55
:1022300013680133136080F310880C49084802F0DA
:1022400043FC63E7074A13680133136080F3108887
:102250002AE700BF80E00020CCBB0020905704108C
:10226000AC53041058E00020545804100C580410CB
:10227000F0B5224B05461E6883B09EB10020204B6E
:1022800001E0B0420ED01C68013094F81DC0043348
:10229000AC45F6D11B4EE06A0096276AA6F108030A
:1022A000B84750B92946184802F00EFC02211748D9
:1022B00003B0BDE8F040FFF7DBBAB268738806F8F8
:1022C000165C2168CDE900321148338856F8082C95
:1022D00046F80C4C02F0F8FB0320FFF72BFA2468B9
:1022E00020463CF0F4F92146B368C2B2A6F11400CE
:1022F00003B0BDE8F040FFF727BB00BF7CCF041060
:1023000080CF041018590020785804100459002078
:10231000A45804100022024B83F87020FFF78CBBF6
:1023200000590020042802D11378EC2B00D070470C
:102330009378102BFBD100B5032183B01046019296
:1023400019F060FF019A01469279044802F0BCFB43
:102350000022034B1A7003B000BD00BF00590410E7
:10236000497D0420042814D108B51378EC2B00D043
:1023700008BD9378122B0DD0132BF9D10B4A0C48C2
:10238000118802F0A1FB00230A49084A0B70138050
:1023900008BD70470146104619F034FF0146034B53
:1023A00005481980BDE8084002F08EBB147D01206D
:1023B00060590410497D042038590410042802D1C2
:1023C0001378EC2B00D0704793781A2BFBD15379FC
:1023D000443B082BF7D801A151F823F00124001049
:1023E000C723001001240010C7230010C7230010CA
:1023F000C7230010C72300100F2400100B24001067
:10240000CD2093792BB104F023BFB620F9E7B52096
:10241000F7E704F047BF00BF1C4800F50053D3F8AE
:10242000FC20816F02EB821200EB0212B2F884C42E
:10243000C2F88814028B02FB0C118167BFF35F8F17
:10244000D3F8FC20013202F00702C3F8FC20D3F8D5
:10245000FC20D3F800C1D3F87411A2EB0C0202F0F7
:102460000702914238BFC3F87421D3F8702193F862
:1024700004110132C3F8702101B170470122817843
:10248000008883F804210DF083BE00BF00590020AE
:102490002DE9F04F04460A2191B019F065FE20465F
:1024A00019F06CFE032003F0B9FB06F0A9FCAA4D5D
:1024B000DFF8C0A2D5E900231A4306460F460AF505
:1024C000005426D0D5E900014BF68032D4F83831DB
:1024D000301A8342DAF8103038BFC4F838010021CE
:1024E000002B08BF1346D4F84C21C4F84001E0FB90
:1024F000032100231046994A3CF0FCFAD4F84831F5
:102500000344C4F84831D4F85831C4F84C21002BA6
:1025100046D1C5E90067D4F83C310133C4F83C31F9
:1025200002F0A6F9D4F81031834204D08C4BC4F8E1
:10253000100143E9026702F089F918B3884B53E9A7
:10254000022352EA030128D08649B21A67EB03033B
:102550008A4273F100032CBF0123002307939AF8EA
:102560003530012B14D103F093FAD4F89831984206
:1025700010D39AF80210BAF8000011B0BDE8F04F7D
:102580000DF002BE012307939AF83530012BEAD0F3
:10259000022B22D011B0BDE8F08F00230793F3E7A0
:1025A000BAF81880B8F1000FB3D003F071FAD4F87C
:1025B000483108EB90009842ABD2D4F84831C4F8C7
:1025C0004801D4F8502113441B1AC4F85031D4F8F0
:1025D00054310133C4F854319BE7BAF818E04FEA9C
:1025E0008E030593013BB3F5806F80F0AF809AF8BE
:1025F0001C30DAF874209A42D4BF0023D31A0D930A
:10260000BEF1000F00F09181D4F84831B3FBFEF326
:10261000DAF82410D4F8402101FB03F35B00002A10
:1026200000F080810020921840EB0005551928BF6A
:10263000012028444C4DA5FB006727F0010606EB5E
:102640005706801B121AA2FB052542F21070834226
:1026500028BF0346934228BF134651EA030200F005
:102660005482994238BF19460023BAF81A200C91B7
:1026700009923E49059ACDE903E33D4D069302EBED
:10268000010BD4F84831039A9A4200F21782D4F829
:10269000FC30D4F800219B1A03F00703072B21D04C
:1026A000D4F8FC909AF81C3009EB89120AEB02125C
:1026B000B2F8821421B9A2F884141946A2F882341F
:1026C000099A002A58D0D31A0D9A0B44934253D931
:1026D000D4F8FC30D4F800219B1A03F00703072B31
:1026E00040F0F580A846D4F86831069A0133C4F862
:1026F0006831D4F84431D318C4F844310023C4F805
:102700000831D8F81830002B40F01181D4F88C3102
:102710000133C4F88C31D4F80831132B7FF63AAF6B
:1027200094F80C31002B7FF435AF079B002B3FF45E
:1027300031AF40F201139AF80210BAF80000A4F881
:102740000C3111B0BDE8F04F0DF020BDD4F82C31A4
:102750000133C4F82C31DEE7307A002040420F000C
:10276000207A0020410D0300ABAAAAAA0CE10020A8
:10277000C07E00200059002003F08AF9059B8342A7
:1027800000F2B9801946CA481E4603F03FF9864256
:1027900040F0A181039B002B3BD0D5E900E8D5E9AF
:1027A0000267D5E904010023CDF8289008959946E1
:1027B0001D46BF4A0B94B2F90040B2F9023084EAD8
:1027C000E47C002BACEBE47CC3FB83011FFA8CFCA4
:1027D000B8BF5B429BB2F44584BFE6460125043294
:1027E000434584BF98464FF001095A45C4FB8467AE
:1027F000E1D14B462A46089DDDF82890C5E90267DD
:10280000C5E904010B9C0BB1C5F804800AB1C5F8F9
:1028100000E0AB69039A1344AB6106F0F1FA09EBEF
:1028200089130AEB0312B2F88224DAF80C7002EB77
:102830000313C2F580620632064690B2F96A7C3311
:1028400000909B4A53447F6A0EA8B847BDF83A707F
:1028500006F0D6FAD4F82431801B9842049B88BF36
:10286000C4F824011A18D4F8803104929A429DF8D1
:10287000383088BFC4F88021002B00F039817FB147
:1028800009EB89130AEB0313B3F88224BDF83C105B
:102890001744B3F88424A3F882740A44A3F8842468
:1028A000069B039A0133DBB20693D4F848319B1A96
:1028B000C4F848319DF83E305BB1D4F8FC30D4F810
:1028C00000219B1A03F00703072B3FF40BAFFFF720
:1028D000A3FD0C9B049A93423FF6D3AEA846069AFA
:1028E000D4F864310133C4F86431D4F8443113446A
:1028F000C4F8443102E7D4F86031069A0133C4F8D1
:102900006031D4F84431A846D318C4F84431D4F81F
:1029100020310133C4F82031D4F808310133C4F830
:102920000831EEE642F210728FE6734670E606F06A
:1029300067FAD8E908230D46049152EA030103908F
:1029400040F0A580D8E90401D4F88831D8F81850AF
:1029500001332A46C4F8883100233CF0CBF82A46DC
:10296000059000230746D8E902013CF0C3F88346EE
:10297000002800F0A1800023451C43F100036D08EE
:102980004FF0000C8646202645EAC3754FEA5309EE
:1029900012E02A464B46584600213CF0ABF840195D
:1029A00049EB0101013EAE46CC464FEA500007D04C
:1029B00040EAC1754FEA5109754579EB0C0CE8D333
:1029C0004FEADE1CBCF1FF0F28BF4FF0FF0C5FFA8F
:1029D0008CFC059B002243B37D1C42F100096D086D
:1029E00045EAC97538462026E3464FEA590912E000
:1029F0002A464B46384600213CF07CF8401949EB0A
:102A00000101013E4FEA50034A46284607D043EAF7
:102A1000C1754FEA5109854279EB0202E8D3C0093A
:102A2000FF2828BFFF20DC46C7B2D8F80010D8F82E
:102A30000420C909D209FF2928BFFF210023FF2A4A
:102A400028BFFF2261F3070362F30F23194A6CF3D7
:102A50001743116867F31F63481C1060BFF35F8F53
:102A60005360BFF35F8F039B0231C8F82030049B93
:102A70001160C8F8243000230022C8E90033C8F8E8
:102A800018300023C8E90223C8E9042343E64CF2C6
:102A90005031821A65EB03038A4273F10003BFF4DD
:102AA00051AFD4F890310133C4F8903133E600BF10
:102AB0000CE10020FCE0002084468AE7D4F85C3179
:102AC000069A0133C4F85C31D4F84431A846D318CF
:102AD000C4F8443112E6D4F88431069A0133C4F8BC
:102AE0008431D4F84431A846D318C4F8443105E6FB
:102AF000D4F82C31069A0133C4F82C31D4F844317F
:102B0000A846D318C4F84431F8E5DFF80480E7E6B6
:102B1000C07E0020134A10B51446002382B004344E
:102B2000114882F85C3001F0CFFF94E80300009078
:102B3000ADF80410A18004F0F5FA6846211F0DF0ED
:102B4000E5FA20B90220FEF7F5FD02B010BD0146FE
:102B5000064801F0B9FF04212046FEF789FE02B0C5
:102B600010BD00BF0059002088590410D859041026
:102B7000042802D11378F02B00D070472DE9F047DC
:102B800093788EB0013B1A2B58D8DFE813F001017F
:102B9000C70057005700570019013C015700700249
:102BA000310257009B02570057001B00510157008C
:102BB0005700C101570057005700ED01570057005B
:102BC00057005A00537B032110461C461D4619F03E
:102BD00019FB0146002C40F0C183BE4A92F85C30DC
:102BE00017463BB1059002F14C0019F0CDFA05995A
:102BF00087F85C5097F870303BB1B748059119F0F1
:102C0000C3FA0023059987F870300023B34AB4480B
:102C1000BB623980C2E90133137387F85F3001F07A
:102C200053FF002307A9AF48ADF81C3013F002F89A
:102C3000BDF81C200146AC4801F046FF0EB0BDE8CF
:102C4000F0870321104619F0DDFAA24B82461F4699
:102C50001B888342F2D1A54B1B689946002B5AD0A2
:102C60004FF00008A24E33681A79002A40F06082C3
:102C700097F82820002A47D0587F05930EF0D6F900
:102C8000059B0546002800F0F48397F82A10059369
:102C90000EF032FE97F82B10ADF81C0028460EF00F
:102CA000D9FD97F82C108DF81E0028460EF00EFE68
:102CB00097F82D108DF81F0028460EF0FBFD97F8B1
:102CC0002E108DF8200028460EF0E6FD97F8301003
:102CD0008DF8210028460EF04BFE97F82F108DF846
:102CE000230028460EF04EFE059B8DF82200597FEA
:102CF000504697F8292007AB0DF054FA00289DD0D4
:102D000001467C4801F0E0FE08F101034B4598467E
:102D100006F10406A7D1514677486BE0032110461F
:102D2000059219F06FFA6B4B059A1988814285D18B
:102D3000907992F80CC0D870092110465479CDF8DA
:102D40001CC019F05FFA059A537B92F80EC0CDE9CA
:102D50000803137C517CCDE90AC3D37A92F80FC0E3
:102D6000022B0C910CF1FF3C00F09683042B00F039
:102D70009183013B18BF01235B001C2220460DEB11
:102D800002018DF835C08DF83430FFF771FA55E740
:102D90005A49504FD1F878310133C1F87831D1F820
:102DA000FC30D1F800219B1A13F0070340F0968203
:102DB000D1F87C2181F804310132C1F87C213DE752
:102DC00003211046059219F01DFA424B059A198805
:102DD00081427FF433AF92F806C010460B2154793C
:102DE00083F803C019F00EFA0728059A00F22D8324
:102DF0000146434801F068FE02213A480EB0BDE8A2
:102E0000F047FEF735BD537B002B00F0CB81194610
:102E10003C48059301F058FE2E4A92F85C1029B107
:102E200092F85E20059B9A4200F021830121E4E79D
:102E300000210320274C02F0FDFE334801F044FE40
:102E400094F85C30274633B104F14C0019F09CF93A
:102E5000002384F85C3097F870302BB11E4819F0CD
:102E600093F9002387F87030FEF730FC00232749E0
:102E700087F85F3001F58052C2F8FC30C2F8F230BA
:102E8000C2F8003182F804313B80FB6087F83530AE
:102E9000C7F88234C7F89238C7F8A23CC1F8B230FC
:102EA000C1F8C234C1F8D238C1F8E23CBB6702F0C5
:102EB000FBFD124AD2F894C16044C2F8940197F81D
:102EC0004820002A40F05C820EB0BDE8F04704F0D4
:102ED00029B900BF0059002060590020285900205E
:102EE000945A041004590020BC5A04107CCF0410DA
:102EF00080CF0410845B0410F85A0410007900207D
:102F0000245C0410585C0410D45E04100069002096
:102F100003211046059219F075F9974B059A198807
:102F200081427FF48BAE93F8281000297FF486AE9F
:102F3000012183F82810517983F82910D17983F879
:102F40002A10117A83F82B10517A83F82C10917A79
:102F500083F82D10D17A83F82E10117B83F82F106F
:102F6000527B83F8302069E603211046059219F060
:102F700049F9814B1F461B8883427FF45FAE0921CC
:102F8000059819F03FF907287FF658AE97F83130C9
:102F9000002B7FF453AE7949D1F800E0BEF1000F69
:102FA0003FF44CAE059AD2F80B100E46B2F80F1053
:102FB000884673490868013390F804C00431BCF1B5
:102FC000FF0F40F00A828568AE4240F00682808999
:102FD000404540F00282012387F83130537987F869
:102FE0003230537C87F83330937C87F8343025E6D1
:102FF000614C0021032002F01DFE04F5005292F8FE
:103000000D11604801F060FD002304F5005204F545
:103010008051C2F8FC30C1F8B230C2F80031C1F8BA
:10302000C234C1F8D238C1F8E23CC2F8F23082F8BA
:103030000431C2F8083182F80C31C4F88234C4F883
:103040009238C4F8A23C02F02FFD002304F5005290
:10305000D2F89411084492F80D11C2F8940184F842
:10306000351082F80D3100297FF4E8AD2CE70121FD
:10307000032002F0DFFD002202203F4901F500534A
:10308000C3F8082183F80C21C3F8482181F83500E2
:10309000C3F84C21C3F83821C3F87421C3F8802148
:1030A00001F0E6FB384BC3F8100105F0A9FE374BE1
:1030B00043E9020101F0B4FB35480EB0BDE8F0472A
:1030C00001F002BD0021032002F0B4FD314801F0FF
:1030D000FBFC0023284991F848200F4681F8353041
:1030E000CB60002A40F0538100232B49C7F882347B
:1030F00001F58052C2F8FC30C2F8F230C2F800315B
:1031000082F80431C7F89238C7F8A23CC1F8B2304F
:10311000C1F8C234C1F8D238C1F8E23CBB6702F052
:10312000C3FC194AD2F894311844C2F89401CBE692
:10313000FF2A7FF4E9AD97F83120002A3FF4E4AD8F
:1031400097F83320D10640F18E8197F83420D207CA
:1031500040F18981597F0823009350460F4B97F81F
:1031600032200DF02BF8014600283FF467AD0C48E3
:1031700001F0AAFCC8E500BF005900207CCF041074
:1031800080CF0410905E041000790020207A002087
:10319000785E0410BC5E04100069002088CF041023
:1031A000F45B0410BD4CD17A20880593A1700CF01B
:1031B000F1FF40F2054119F0CDF8059B618B04F554
:1031C000005504F58052C5F8FC302746C5F800319B
:1031D0006067C4F88234C4F89238C4F8A23CC2F8DC
:1031E000B230C2F8C234C2F8D238C2F8E23CC5F8F4
:1031F000F23085F80431A367C5F8083185F80C3141
:10320000002940F0CC800120636AC5F8580153B111
:10321000194601F51C520F32B2FBF1F25100013197
:10322000072900F22B819E4C9E49D4F838313A8B05
:10323000A1FB031300FB02F29B0903EB43039B0179
:1032400003F1C00000EB82004FF49051950005930C
:1032500019F084F84FF40051064619F07BF8059BED
:1032600002460093D4F85811C4F898012B468E48B2
:1032700001F02AFCD4F898213146964204D0D4F8C3
:1032800038318A4801F020FC02F00EFC0346844CE1
:10329000796FD4F8942186481344C4F8943101F02E
:1032A00013FC844803F0ECFD97F85F10002900F050
:1032B00098800123804887F8353018F065FF7F49F2
:1032C0007D4818F02DFF0A217B4818F04DFF7A4801
:1032D00018F054FF012387F84830AFE4BFF35F8F45
:1032E0006F4CD4F800311D4603EB831307EB031139
:1032F000B1F8843401F17C0281F87C30D1F8883453
:10330000B1F88214CDE900210022B97838880CF098
:1033100043FF00285AD1D4F828310133C4F82831AA
:10332000002105EB8513664A1B0103F58F63D1501D
:10333000BFF35F8F07F50051D1F80031013303F07F
:103340000703C1F80031D1F8FC30D1F800011B1A95
:1033500013F007036BD181F804316FE4214659481B
:1033600001F0B2FB00224D4B0B2C1A8067D0231FBB
:10337000DBB2072B3FF65AAD534A52F823103CE517
:103380004D4818F001FF002387F848309CE501F113
:10339000380018F0F9FE002387F84830A4E6227FB1
:1033A0009042C6BF801AB0FBF1F11946012018F017
:1033B000D5FF3B4A636AC2F85801002B3FF433AF94
:1033C00000283FF430AF03FB00F122E7344AD2F883
:1033D0002C310133C2F82C31A2E773457FF4EAADFA
:1033E0002CE40123059187F85F30FEF73BF9374B5A
:1033F00005991B682BB1364BF9681B68C91A18BFB1
:1034000001212C48FEF7C8F9324818F0BDFE3249B8
:10341000304818F085FE4FF4FA612E4818F0A4FEEB
:103420002C4818F0ABFE012387F8703041E7B978DB
:1034300032F80A0C0EB0BDE8F0470CF0A9BE93F8C4
:103440005D20002A52D00421D7E492F813C0137DE6
:103450002046022207A98DF81CC08DF81D30FEF70A
:1034600007FFFFF7EBBB1D4801F02EFB4CE41C48A7
:1034700023E6597F1B4801F027FB45E4CDE9010312
:10348000009208231848072201F01EFB044BD3F8D2
:103490005801C8E6032370E401236EE400590020BC
:1034A00000790020D34D6210685D0410C85D0410DF
:1034B000405E041004590020385900209124001067
:1034C0000A5900200C5A04105CCF04107CCF041061
:1034D00080CF04106059002015230010B05B041049
:1034E000885C0410505B0410DC5C0410012240F284
:1034F000DC510E4883F85D2001F0E6FA0C4818F024
:1035000043FE0C490A4818F00BFE40F2DC51084813
:1035100018F02AFE064818F031FE0122064B83F807
:103520005C2083F85E40FFF789BB00BF405A04105F
:103530004C590020152B001000590020474BD3F8A0
:1035400000C01CF0010F07D1BFF35F8F5968BFF3B4
:103550005F8F1A6894455BD0D3F800C01CF0010F50
:1035600007D1BFF35F8F5968BFF35F8F1A68944527
:103570004ED0D3F800C01CF0010F07D1BFF35F8F0E
:103580005968BFF35F8F1A68944541D0D3F800C0E3
:103590001CF0010F07D1BFF35F8F5968BFF35F8F36
:1035A0001A68944534D0D3F800C01CF0010F07D13D
:1035B000BFF35F8F5968BFF35F8F1A68944527D0B8
:1035C000D3F800C01CF0010F07D1BFF35F8F59681B
:1035D000BFF35F8F1A6894451AD0D3F800C01CF06F
:1035E000010F07D1BFF35F8F5968BFF35F8F1A6870
:1035F00094450DD0D3F800C01CF0010F07D1BFF3E4
:103600005F8F5968BFF35F8F1A68944500D0704789
:10361000002AFCD010B5124B98B01C6894421AD006
:103620001A6004460D230420EC460DF1380ECDE956
:103630000B030D91BEE80F00ACE80F00BEE80F00D1
:10364000ACE80F009EE803008CE803000BAB2046BB
:103650000ECB29F0B9FA18B010BD00BFFCE0002075
:10366000E8E0002070B5224C054623780E4682B073
:103670007BB1204BD3E90023904271EB030301D2CD
:1036800002B070BD1C4B1D48198801F01DFA0023C3
:1036900023700DF1070003F0F1FF0028F0D0164B66
:1036A0009DF807101888F0B113F052FE124B9DF8E8
:1036B00007101A8880B901232370114BDFF834C03A
:1036C000EB1846F100040F48CCF80030CCF8044069
:1036D00001F0FAF902B070BD13460A4601460A48E5
:1036E00001F0F2F9CCE7094801F0EEF902B070BD43
:1036F000497D0420E8580020147D0120FC5E041060
:1037000060E31600CC5F04107C5F0410405F04107F
:10371000F0B585B01FF060FB0CF0C4FC5C480CF009
:10372000B5FC5C4B1C68FCB14FF0000E5A4D2E1FCF
:1037300056F8047FB97B002900F0A4800EF1010E39
:10374000A6457AD23246734601E0A342F0D252F83F
:10375000040F013390F80EC08C45F6D103683A6827
:103760004E4801F0B1F9FEE712F036FA4C4812F07B
:103770005BFA15F0A5F94B4815F0AEF913F0D6FD3C
:10378000494813F0DFFD15F0D9FF96220021474884
:1037900000253BF029F915F0E3FF2B4601460122F5
:1037A000009542480CF054FC404815F0FBFF2946B8
:1037B000C8223F483BF018F915F0D2FF2B460146CE
:1037C000012200953A4815F059F9394815F0EAFFF9
:1037D0002946C82237483BF007F915F0C1FF2B46B0
:1037E000014602220095334813F07CFD314815F064
:1037F000D9FF2946642230483BF0F6F8012515F040
:10380000AFFF40F28F4301462A46CDE900552A48D2
:1038100015F0D0FA284815F0C5FF28481EF0AAFC7C
:1038200028461EF0B9FA26481EF09AF92146254886
:1038300005B0BDE8F04001F047B97FF479AF00274B
:103840000DE04BF6803103900EF000F8039811F074
:1038500015F870770FF014FC0137A74284D055F8A3
:10386000046B307F337D326931790190B06900900B
:1038700000200CF01FFC0028E3D11348316801F050
:1038800023F9E9E73968114801F01EF9FEE700BFA6
:10389000712B00107CCF041080CF0410B86004108E
:1038A00065230010BD23001025230010FC6F0120AC
:1038B0005C710120947001202472012000600410CA
:1038C000080420001C60041000610410486004100B
:1038D000034B93F83500003818BF0120704700BF34
:1038E0000059002030B5184B044693F85C2083B093
:1038F0003AB103F14C0018F047FC0022124B83F858
:103900005C20002283F85D202068A28858600F4D5B
:10391000A3880090ADF80420AB8003F003FC684658
:10392000291F0CF0F3FB20B90220FDF703FF03B0C1
:1039300030BD0146064801F0C7F804212046FDF7D6
:1039400097FF03B030BD00BF00590020045900208C
:10395000D859041010B50D4C94F85C3033B104F113
:103960004C0018F011FC002384F85C30208840B132
:103970000CF008FC21880246BDE81040044801F024
:10398000A3B80448BDE8104001F09EB800590020DB
:103990006861041030610410F0B5464B0546DA68E2
:1039A00089B0002A00F0838014681E6A02F070F863
:1039B000059002F087F803954FF4905521463E4C50
:1039C00001900095D4F820513246059B3B48029562
:1039D00001F07AF8D4F82461D4F82821D4F82C31F5
:1039E0000692059302F074F8DDE90532054631468A
:1039F0003348009501F068F8D4F83C113148D4F808
:103A00003821D4F8443101F05FF8D4F85021D4F8CB
:103A10005811D4F854310792D4F894510691D4F83F
:103A20009C61059300F0EEFE074600F0F1FEDDE933
:103A30000612CDE90270059B23480196009501F01E
:103A400043F8D4F85C11D4F86821D4F86031D4F884
:103A500064511E480095D4F8845101951C4D01F025
:103A600033F82968D4F86461B14204D03246194869
:103A7000711A01F029F8D4F87011D4F87421D4F82F
:103A80007831D4F87C012E600090D4F8805112482F
:103A9000019501F019F8D4F888111048D4F88C2158
:103AA000D4F8903109B0BDE8F04001F00DB80C4CED
:103AB0007BE700BF0059002000790020AC610410B2
:103AC000006204104062041088620410186304103D
:103AD000ECE000207C63041098640410F864041087
:103AE000A46104102DE9F047184B88B01C6801341C
:103AF0001C6005F085F9164B8046D3F83C21D3F8BD
:103B00004451D3F82861D3F86471D3F85C31894605
:103B10000692079301F0D6FF494682464FF47A7227
:103B2000404600233AF0E6FF07992246069C0346EA
:103B3000CDE9037100200749CDF814A00296019544
:103B4000009401F013FB08B0BDE8F08788720120F3
:103B5000007900204C650410704700BF70B582B03A
:103B6000BDF818C00446BCF1C70F19D90D4611465F
:103B70001A462B4653F8040BC66818460193B04703
:103B80002A6801989368984750B100220123C4F82D
:103B900001206080204662602370A38002B070BD67
:103BA000002320462360636002B070BD1C2A01D050
:103BB000002070478C462DE9F04104468EB0DCF8B9
:103BC0000820086898464968DCF80C300DF11C0E96
:103BD000AEE80F00DCF81000DCF81410DCF8182058
:103BE000261DAEE80700304628F096F99DF83430DF
:103BF000206003939DF83030089F02939DF8353084
:103C000000210093BBB201939DF8242005689DF824
:103C100028303046A84741F20203A8F80430236850
:103C200030465B68C8F800709847149A03461080C5
:103C3000420092B2511EFF2922D922683046926872
:103C4000059390470122149B58801A71059B73B10C
:103C5000A0FB07414FEAE77C00FB0C11C9001A46A4
:103C600041EA54710023E0003AF044FF03464FF468
:103C7000487201201499C1E902320EB0BDE8F0810A
:103C800000210590520005483AF0AEFE2068044A33
:103C9000C368024930469847059BCEE7FCE5002003
:103CA00034E50020036853B110B5044618463CF0D3
:103CB00089FD20683CF068FD0023236010BD70473B
:103CC00010B50446086886B000B34FF0000C1146EA
:103CD00005AA019204AA009203AACDE903CCCDF86B
:103CE00014C03DF035F988B9049BC4F80100834243
:103CF00060604FF00101D4BF0022012220466380A2
:103D0000059B2170A380A27106B010BD0023204640
:103D10002360636006B010BD022A01D00020704706
:103D20000A88D1B21029F9D1120A012AF6D170B548
:103D3000054600681E4684B000283FD03CF042FD96
:103D400028684FF0020C4BF680340123002240F229
:103D5000A721CDE900C43CF0EBFD0346286843BB36
:103D60004BF680328021326041F2020E4FF0010C9E
:103D70004FF4FA620393089BA6F804E0196083F8F5
:103D800004C0DA603CF0C6FD011E0BDD4FF47A730F
:103D900001FB03F3089A0C48936000F095FE0120A4
:103DA00004B070BD094800F08FFE089A039B936031
:103DB000F5E73CF007FD002004B070BD3CF080FC4E
:103DC00028600028BDD1F6E7D06504109C6504107A
:103DD00080B50E46074600214FF4FA701C46154682
:103DE00005F0F0F8204A936983BB01239361D76003
:103DF000166155610CB3029BFBB1DB2B28BFDB23A3
:103E00005A1E052A194F25D9791E091B0229224657
:103E100020D9394623F00305661952F8040BB24243
:103E200041F8040BF9D1AB4204D0625D7A550135FB
:103E3000AB42FAD80022FA5402E000220B4B1A706F
:103E400000210A22084605F0FDF8FEE70021084699
:103E500005F082F9054AE01814F8011B844202F8C3
:103E6000011BF9D1E6E700BF00800D4010010020E2
:103E7000002200B583B00346009102481146FFF7C7
:103E8000A7FF00BF50524C5008B58C468646002113
:103E9000054B064A0846DA60C3F810E00A22C3F868
:103EA00014C005F0CFF8FEE700800D4044574C5099
:103EB0005221002200B583B00091024B1146024806
:103EC000FFF786FF90CF04104F4C4C500FB400B555
:103ED0000021BBB04FF4FA70754605F073F83C9BB7
:103EE000D3B103AC3DABDC2120463C9A029306F0F3
:103EF0007DFFB0F1000C0CDBBCF1DC0F28BF4FF0F4
:103F0000DB0C2346002229460548CDF800C0FFF708
:103F10005FFF4FF0000CF4E7DDF8F0C003ACF0E712
:103F200043434C5004207146084202D0EFF309800D
:103F300001E0EFF3088000F001B800BF00B50446CF
:103F40008FB000214FF4FA7005F03CF84FF0E020FC
:103F500043F6425E4FF05043D0F8282DD0F838CDCC
:103F60001B68ADF808E04FEA1C7EBEF1090F94BF54
:103F70000EF1300E0EF1570E8DF80AE0CCF3036E01
:103F8000BEF1090F94BF0EF1300E0EF1570E8DF8F1
:103F90000BE0CCF3035EBEF1090F94BF0EF1300EBF
:103FA0000EF1570E8DF80CE0CCF3034EBEF1090F65
:103FB00094BF0EF1300E0EF1570E8DF80DE0CCF3DC
:103FC000033EBEF1090F94BF0EF1300E0EF1570EF5
:103FD0008DF80EE0CCF3032EBEF1090F94BF0EF165
:103FE000300E0EF1570E8DF80FE0CCF3031EBEF12C
:103FF000090F0CF00F0C94BF0EF1300E0EF1570E9E
:10400000BCF1090F94BF0CF1300C0CF1570C8DF87A
:1040100011C045F2203CADF812C04FF03D0C8DF8B8
:1040200014C04FEA147CBCF1090F94BF0CF1300CA2
:104030000CF1570C8DF815C0C4F3036CBCF1090FDB
:1040400094BF0CF1300C0CF1570C8DF816C0C4F372
:10405000035CBCF1090F94BF0CF1300C0CF1570C50
:104060008DF817C0C4F3034CBCF1090F94BF0CF1D9
:10407000300C0CF1570C8DF818C0C4F3033CBCF1A4
:10408000090F94BF0CF1300C0CF1570C8DF819C0CE
:10409000C4F3032CBCF1090F94BF0CF1300C0CF1EC
:1040A000570C8DF81AC0C4F3031C6069BCF1090FEA
:1040B000A16904F00F0494BF0CF1300C0CF1570C03
:1040C000092C94BF303457348DF81C4020248DF8CF
:1040D0001BC043F64C5C8DF81D40040F092C94BFA7
:1040E000303457348DF82040C0F30364092C94BF5A
:1040F000303457348DF82140C0F30354092C94BF59
:10410000303457348DF82240C0F30344092C94BF57
:10411000303457348DF82340C0F30334092C94BF56
:10412000303457348DF82440C0F30324092C94BF55
:10413000303457348DF82540C0F30314092C94BF54
:10414000303457348DF810E0ADF81EC08DF826409D
:104150003D2444F2203C00F00F00092894BF303089
:1041600057308DF82700180F09288DF82A408CBF8A
:1041700000F1570400F13004C3F3036009288DF8FF
:104180002B408CBF00F1570400F13004C3F30350FF
:1041900009288DF82C408CBF00F1570400F1300441
:1041A000C3F3034009288DF82D408CBF00F157045C
:1041B00000F13004C3F3033009288DF82E408CBF82
:1041C00000F1570400F13004C3F3032009288DF8EF
:1041D0002F404FF02C0E8CBF00F1570400F130043B
:1041E000ADF828C08DF830404FF0200C0024C3F308
:1041F0000310092803F00F038CBF57303030092B10
:104200008CBF573330338DF831008DF8323005488C
:1042100002ABCDF800E08DF833C08DF83440FFF7E5
:10422000D7FD00BF46484C5030B54D4B4D49DA687C
:1042300083B08A4238D0A1F60D718A4216D001F2BD
:1042400003518A423DD0A1F2F3618A4264D001F564
:10425000AF5111318A424AD0A1F6F5218A4271D07C
:104260000022DA601A615A619A611BE019693E48BE
:104270005B69019100F028FC3C4800F025FC0199A5
:104280003B4800F021FC3B493B4800F01DFC3B480B
:1042900000F01AFC0023324A3649D360136153619F
:1042A00093610B7003B030BD2F481A695B6900F051
:1042B0000BFC334800F008FC2E492F4800F004FCAA
:1042C000E5E7196928485C69019100F0FDFB2D487C
:1042D00000F0FAFB01992C4800F0F6FB21462B4830
:1042E00000F0F2FB23492A4800F0EEFBCFE71C69FF
:1042F0001D485D6900F0E8FB264800F0E5FBE0B2F0
:1043000001F048FC22460146234800F0DDFB294627
:10431000224800F0D9FBBAE7196913485C6901919A
:1043200000F0D2FB1E4800F0CFFB0199104800F0CE
:10433000CBFB21461B4800F0C7FB0E490E4800F09E
:10434000C3FBA4E708481A695B6900F0BDFB164887
:1043500000F0BAFB0749084800F0B6FB97E700BF3A
:1043600000800D4050524C5010660410C867041075
:10437000286704101001002060660410DC67041038
:1043800044660410586704106C67041084670410B6
:1043900094670410AC660410DC660410F866041020
:1043A000146704104C6704107066041000487047CE
:1043B00020D104100048704704D0041000B51D4AF5
:1043C0000346117883B041B363B940F209424FF418
:1043D0004173DFF864C0ACF802201748ACF8003035
:1043E00003B000BD072B1FD8144A52F82300002841
:1043F000F6D0DFF844C000236146013803E01F2BEC
:1044000021F8022F12D010F8012F0133DBB2002A5D
:10441000F5D15B0043F44073DFE7019011211046B2
:1044200007F014F8019BCFE70020D9E74FF4507351
:10443000D3E700BFE87C01202C990020E4CF0410D2
:104440000048704708D1041000207047704700BF33
:1044500010B54B798C46042B84B004D0022B17D0B6
:10446000002004B010BDCA78012A38D0022AF7D142
:104470004B78012BF4D1DFF8F0C08DF80030DCF878
:1044800000200132CCF800206A4608F0DDFFE8E7A2
:10449000314A8C781368022C03F101031360DFD8D2
:1044A000CB78012B0FD0022BDAD14A78022A46D0E2
:1044B000012AD5D1294A32F814C06A46ADF800C0A5
:1044C00008F0C2FFCDE74B78012BC9D1244A12F87E
:1044D00004C06A468DF800C008F0B6FFC1E791F845
:1044E00001C0BCF1010F1AD0BCF1020FB8D1DFF846
:1044F0007CE0ADF80020DEF800204BF6803C013275
:10450000CEF800204FF0000E0E236A46CDF802C010
:10451000CDF806C0CDF80AE008F096FFA1E7DFF875
:1045200050C0DCF800200132CCF80020DFF844C095
:104530006A46DCF80040009408F086FF91E7864662
:10454000084B6A4693E803000823CDE90001614661
:10455000704608F079FF84E7C8E00020A09C0020A6
:104560009C9C002034D1041070E000206CE00020FE
:1045700068E000207C46002008B54B79022B18D05B
:10458000042B01D0002008BD204891F801C0036829
:10459000BCF1010F03F101030360F3D1CB78012BD0
:1045A000F0D1CB88042BEDD1194B12681A60012091
:1045B00008BD184891F802C00368BCF1020F03F16E
:1045C00001030360DED84B78012BDBD1CB78012BC4
:1045D00013D0022BD6D1CB88022BD3D113785178AC
:1045E0000D4A43EA012322F81C30BCF1000FDED152
:1045F000B2F9000002F03CFFD9E7CB88012BC1D112
:10460000064B127803F80C20D1E700BF74E00020BD
:104610007C460020CCE00020A09C00209C9C002038
:1046200010B5DFF860C08B88DCF800204988DBB269
:10463000104CDFF854E00132C9B2012BCCF8002055
:1046400023708EF8001001D0012010BD0A1E18BF83
:104650000122094B01291A70F6D1084A1368013367
:10466000136007F0A3FF0028EED0054A136801335A
:104670001360E9E7567D0420697D04208C720120D7
:10468000B4E0002090720120557D04208B88DBB2BD
:10469000012B01D0012070474B88DBB2002BF9D1F0
:1046A000014A012013707047697D042000230249EC
:1046B00013700968516070477C460020024A1368F5
:1046C00001331360704700BFBCE000200848094A6E
:1046D0000368C02903F10103036013680B441360EE
:1046E00003D0054A1368013313600120704700BFEF
:1046F0003CBA0020406901204469012070B50020C7
:1047000008F06CF9D0B10E4EB0F5807F28BF4FF4A1
:10471000807084B222460B49002008F06BF90546F0
:104720003368014603440748336001F01BF9AC428B
:1047300004D8002008F052F90028E5D170BD00BF70
:1047400040BA0020EC74012008B501F0A1F9244B17
:10475000DFF8A8C01A68824288BF1860DCF8003011
:10476000204AC01A03EBA013A3F5905002FB00F1FE
:10477000CCF800301C4B83FB01C3DFF884C0C917A1
:10478000C1EBA321DCF800301B1A184883421FDC60
:1047900017488342B8BF03461EDA124811448142CB
:1047A000B8BF0146B1F5FA7FA8BF4FF4FA714FF4D4
:1047B0004010CCF8003081FB000100230D4A3AF094
:1047C0008FF9BDE8084000F54011002008F004BE54
:1047D00003464FF4FA72E0E7074A93FBF2F2DCE794
:1047E000784600200CFEFFFF398EE33880F0FA0295
:1047F000800F05FD40420F00A0860100C0E00020B0
:10480000C4E00020014B1868704700BFC0E00020E2
:104810004FF0FF32014B18681A607047784600204D
:1048200010B501F035F94FF0FF324FF0000C04499C
:10483000044B054C0860C4F800C01A6010BD00BFEE
:10484000C0E0002078460020C4E00020014B18782A
:10485000704700BF697D0420014B1868704700BF96
:1048600040BA0020014B1868704700BF7C4600200A
:10487000014B1868704700BF3CBA0020014B186814
:10488000704700BFBCE00020014B1868704700BFB4
:1048900040690120014B1868704700BF446901203E
:1048A000024A136801331360704700BFE0E0002044
:1048B00008B5034B186803F011F9012008BD00BFCB
:1048C0008046002010B504F09BFA2C4B8446D3E9B7
:1048D0000020104307D02A48ACEB0202D0F800E0D9
:1048E000964538BF02600020C3E900C101F096F987
:1048F0000021244840F08CFB20B9234A136801337F
:10490000136010BD0121214A002013680B4413607D
:1049100007F04CFE002104464FF0FF3007F072F91B
:104920000121002007F042FE844203D0184A136898
:1049300001331360012001F071F9002008F04EF8F6
:10494000144A13889BB2984288BF1080B0F5107F3C
:1049500003D3114A136801331360FFF7CFFEFFF74B
:1049600075FF20B9BDE81040064840F029BBFFF7AD
:10497000EBFEBDE81040034840F022BBB07E0020B3
:10498000E874012044BB002004E8002000E8002077
:10499000B8E00020127D012078BB0020204A08B535
:1049A000136801331360FFF751FFF8B11D4A1E4928
:1049B000136801331360D1F88C305B0517D41B4AA0
:1049C000136801331360FFF753FF194B1949D3F8EC
:1049D00000C00A68A2EB0C0202440A601A68904206
:1049E00018D015490A6801320A60186008BDFFF73F
:1049F0003FFF0F4B0F49D3F800C00A68A2EB0C022F
:104A000002440A601A689042EBD10C490A680132EC
:104A10000A60EAE70A490A6801320A60E5E700BF6E
:104A20009C740120B0740120000010509874012083
:104A3000A0740120AC74012094740120A47401209E
:104A4000A8740120012007F03DB800BF10B512483E
:104A500084B003F05BFB012003F004FB0F4C104912
:104A6000206003F047F82068C02103F079FA20683D
:104A70000024012103F00CF803F08AFDDFF82CC0BC
:104A800008494FF0FF33CDE9014C074A009104F08B
:104A9000EDF804B010BD00BF44BB002080460020EC
:104AA000C5480010B148001018FCFFFFF07E002040
:104AB0000021014840F0ACBA44BB0020014840F05E
:104AC0007FBA00BF44BB00200FB410B5E2B064ABA6
:104AD00053F8042B4FF4C07102A87446019306F0FA
:104AE00085F9011E08DD40F27F139942224628BF56
:104AF000194602A800F0F6F962B0BDE8104004B013
:104B0000704700BF0FB410B5E2B064AB53F8042B8C
:104B10004FF4C07102A87446019306F067F9011EB4
:104B200008DD40F27F139942224628BF194602A8A9
:104B300000F0D8F962B0BDE8104004B0704700BF83
:104B400030B585B00546FFF793FE044600F0F6FA4F
:104B50002B46024621461D48FFF7B6FF00231C4D99
:104B60001C4C1D491D4A2B80236009681C48126893
:104B7000FFF7AAFF1B4C1C491C4A1D4B1D48096826
:104B800012681B682468006800941B4C019024681C
:104B90001A480294FFF798FFFFF770FE0146184885
:104BA000FFF792FFFFF770FE0446FFF773FE214602
:104BB00002461448FFF788FF00F0C6FA0146124883
:104BC00005B0BDE83040FFF77FBF00BF606804104C
:104BD000127D012078BB002000E800209C74012099
:104BE00098680410A8740120B07401209474012006
:104BF000A474012098740120AC740120C8680410CA
:104C000030690410506904108C6904102DE9F047D4
:104C100082B081460C46164604F0F2F8EFF3108598
:104C200072B6764F764B3A681B6803F500539B1AB1
:104C3000A342C0F08880824638682246C0F30C0048
:104C4000C0F50058444528BF42466E4B49461844BB
:104C5000019239F06CFE4445019A6DD8DFF8B8C175
:104C60004FF0FF3E634600223968214439601878CE
:104C7000194650BBBEF1FF3F12D11F2A02F10107B6
:104C800000F0B780187C964603F1100100284BD144
:104C90000232202A21D093F8200020331946A0B9EF
:104CA00017460132202A984603F1100318D01878CD
:104CB000194650B91E2F07F1020208F120030CD04B
:104CC00098F8200019460028EAD049688E4230D072
:104CD0000132202A03F11003C9D1BEF1FF3F0DD0EC
:104CE000002301210CEB0E12C2E902334FEA0E1E23
:104CF00056600CF80E1093682344936085F3108877
:104D0000414A13682344136004F07AF83F4AA0EB49
:104D10000A0013683E49034413600B68984200D9A7
:104D2000086002B0BDE8F0870B4649683A468E42FB
:104D3000CED10CEB0212DEE709EB02013148A21AD8
:104D400039F0F5FD8AE7DFF8D0C04FF0FF37634652
:104D5000002208E00A4659688E4242D00132202AD9
:104D600003F1100340D019780029F4D1791C3ED109
:104D70001F2A02F101013FD0174613F8102F002A15
:104D8000E8D11F299E4601F1010213D013F8100F3C
:104D90000028E0D11E2901F1020225D09EF8201042
:104DA0000EF120030029D6D111461F299E4601F19C
:104DB0000102EBD1012200210CEB07133F010CF89B
:104DC00007201A46C3E902115E60D3682344D3600A
:104DD00085F310880F4A13682344136002B0BDE8BE
:104DE000F0870CEB0212F0E77B1CF1D0E2E71146F2
:104DF000C7E74FF01F0E73E71F27DBE7F001002026
:104E0000EC010020F401002064E000200CE8002008
:104E100008E8002060E00020E856002000000000C4
:104E20001F4AF8B511681F4B99422AD000231E482B
:104E30001E4C037018461E4923600B6000211D4C58
:104E4000184B206013601C4E1C4B1D4D1D4F1E4CFB
:104E50004FF400721D48316029603960216019608B
:104E600039F0C2FD00219FED0C7B194A194B82EDF0
:104E7000007B19601848194A194B016011601960CC
:104E8000F8BD0121094B0A4C1868074B24681970BA
:104E9000001BD3E7AFF3008000000000000000001B
:104EA000F4210020524C4C505B7D0420F001002086
:104EB000EC01002010E8002060E000207CBB002016
:104EC0000CE8002008E80020B0E00020E8560020B0
:104ED000987E00203C6901205CE0002064E0002016
:104EE000ACE000200B4639B1B1F5005F05D90449AB
:104EF0000A6813440B6070477047FFF787BE00BF16
:104F000060E0002000000000F0B57D4D8BB02B6804
:104F100001332B6003F074FF7A4BD3E9002452EA8B
:104F2000040C0AD04FF0000CDFF808E2821A61EBA3
:104F3000040496457CEB040C5BD200229FED6E7B53
:104F4000C3E90001704B10468DED067B144603F556
:104F5000007C089202E0103363451DD01A78002AC5
:104F6000F9D0002C58D0D4F808E09A68724553D88C
:104F700000286ED081688A426BD80899002954D0E5
:104F80008E68B24251D81033634506D01A78002A91
:104F9000EBD110336345E1D10899002C5CD0D4E902
:104FA000012300285CD0D0E9014C00295CD0D1E974
:104FB0000101CDE90201CDF804C00120534900945C
:104FC00000F0D4F82A68524B524D1B682D68DFF868
:104FD00060E10095DEF80050DFF85CC10195DCF877
:104FE00000504D4C0295246802204C49039400F077
:104FF000BDF84B4A4B4D4C4B146829681A68641A2B
:10500000A24214D21C60FFF753FDD0B9404A136886
:10501000013313600BB0F0BD0022089007940DEB34
:1050200082029361DDE9064095E70222F7E7002C52
:10503000E9D100F0C7F80028ECD0FFF739FD0028CF
:10504000E4D006F02FFD88B90BB0BDE8F040FFF7C3
:1050500035BD01220890E2E7224623460028A2D16E
:10506000044684460029A2D10846A2E706F022FDA4
:1050700006460028E8D108F07DFBC8B1059000F095
:10508000A1F8059BC8B17F2BDED906A8059306962B
:1050900000F0A6F8059B024678B10699304608F064
:1050A00049FB0746304608F0FBFA059BDB1B04D1A1
:1050B000184A136801331360C6E729681B48C1F317
:1050C0000C01C1F50052A24228BF22469A4228BFD5
:1050D0001A460144002008F02DFB01462B68144AB3
:1050E0000B442B60136800200B44136008F0D8FABF
:1050F000AAE700BFAFF3008000000000000000003E
:10510000ACE00020987E0020E8560020B069041032
:10511000B0E000203C69012060E00020F06904104C
:10512000F0010020EC0100207CBB0020F4010020F5
:105130005CE000203F420F0064E00020014B186853
:10514000704700BF60E00020014B1868704700BF47
:105150007CBB0020014B1878704700BF5B7D0420AA
:10516000014B1868704700BF10E80020032800D9E1
:1051700070470EB430B5114A82B002EBC01506ABD1
:105180000446059A7E212846019305F02FFE20EA69
:10519000E0707D28A8BF7D202021C0F17E02284438
:1051A00039F022FC40F60D210122054BA5F87E10B6
:1051B0001A5502B0BDE8304003B070479472012028
:1051C000207F0020054B1A782AB95A781AB99A78A4
:1051D0000AB9D87870470120704700BF207F0020AF
:1051E00000B5DFF85CE0DFF85CC09EF8002002F05C
:1051F00003031CF8031099B9531C03F003031CF8B4
:10520000031069B9931C03F003031CF8031039B9A8
:10521000033202F003031CF803200AB9104600BD54
:105220000021064A0CF8031002EBC31202605A1C5C
:1052300002F0030280208EF8002000BD947201204D
:10524000627D0420207F00200D2867D8322A73F168
:10525000000110B566D3642A73F1000165D3C82A32
:1052600073F1000164D3B2F5FA7F73F1000162D3E8
:10527000B2F57A7F73F1000151D3B2F5FA6F73F191
:1052800000015BD341F288318A4273F1000158D3A7
:1052900042F210718A4273F1000155D344F6206145
:1052A0008A4273F1000152D34CF250318A4273F1B9
:1052B00000014FD30021DFF8B0C0944571EB030C1F
:1052C0004BD2DFF8A8C0944571EB030C48D2DFF84D
:1052D000A0C09445994128BF4FF00C0C01D24FF06B
:1052E0000D0CDFF890E000EBC0000CEB400C0EEB77
:1052F000C000816B013181635EF82C1001F1010166
:105300004EF82C10C16B41F10001C163D0E910418E
:105310009442994138BFC0E9102310BD70474FF047
:10532000040CDEE74FF0000CDBE74FF0010CD8E790
:105330004FF0020CD5E74FF0030CD2E74FF0050C0D
:10534000CFE74FF0060CCCE74FF0070CC9E74FF062
:10535000080CC6E74FF0090CC3E74FF00A0CC0E792
:105360004FF00B0CBDE700BF9F8601003F0D03000F
:105370001FA10700A07A0020D849D948D1F800C061
:105380002DE9F0470CF101025308A0FB03039B0831
:10539000C3EBC303D34CA2EB43020CEBCC0304EBF3
:1053A000C30384B00A60D3E90E1051EA000300F091
:1053B0006E824B1840EB00025B1840EB0202D200F9
:1053C00042EA5372DB005B1840EB0202DB185241E9
:1053D000633342F10002642B72F10005C0F0548285
:1053E0001D0D45EA0235C5F31306C3F31305354415
:1053F000C2F313263544BC4E05EB1275A6FB0576A9
:10540000F60806EB860606EB8606AD1B5B1BB74D62
:10541000B74E03FB05F562F1000206FB0252A3FB47
:10542000063632449B0843EA827392084FF0000A22
:105430000CEBCC0E54F83E7004EBCE0E9F427AEB90
:10544000020580F03082DEF80450ED194AEB0A08BC
:105450009D4278EB020980F03782DEF8086016EB97
:10546000050948F10008994578EB020580F0308283
:10547000DEF80C5015EB090548F100089D4278EB69
:10548000020980F02D82DEF8106016EB050948F164
:105490000008994578EB020580F02A82DEF8145066
:1054A00015EB090548F100089D4278EB020980F0F0
:1054B0002582DEF8186016EB050948F100089945C9
:1054C00078EB020580F01E82DEF81C5015EB090512
:1054D00048F100089D4278EB020980F01B82DEF85B
:1054E0002060751948F100089D4278EB020980F0B0
:1054F0001582DEF8249019EB050948F1000899455A
:1055000078EB020580F010820CEBCC0E04EBCE0E93
:10551000DEF8285015EB090548F100089D4278EBAC
:10552000020980F00782DEF82C60751948F1000846
:105530009D4278EB020980F00582DEF830E01EEB38
:10554000050E48F100089E4578EB020828BF0C23A1
:1055500080F0AA81DFF89C814B1840EB00025B18B9
:1055600040EB0202520142EAD3625B015B1A62EB3A
:105570000002633342F10002642B72F10005C0F0B7
:105580008E811D0D45EA0235C5F3130EC3F31305D5
:105590007544C2F3132E7544DFF84CE105EB127528
:1055A000AEFB059E4FEADE0E0EEB8E0E0EEB8E0E60
:1055B000A5EB0E055B1B4D4D62F1000205FB03FEE2
:1055C000A5F1CC3505FB02EEA3FB0535AE449B08E7
:1055D00043EA8E734FEA9E0E9F427AEB0E0280F0F2
:1055E0006C810CEBCC0504EBC5056A68D2194AF155
:1055F00000099A4279EB0E0680F06881AE68B21815
:1056000049F100099A4279EB0E0680F06381EE6859
:10561000B21849F100099A4279EB0E0680F06281D6
:105620002E69B21849F100099A4279EB0E0680F012
:105630005D816E69B21849F100099A4279EB0E0654
:1056400080F05A81AE69B21849F100099A4279EBAB
:105650000E0680F05581EE69B21849F100099A42B0
:1056600079EB0E0680F054812E6AB21849F10009D8
:105670009A4279EB0E0680F04F816D6AAA1849F1C3
:1056800000059A4275EB0E0980F04C810CEBCC09B9
:1056900004EBC909D9F82860B21845F100059A420F
:1056A00075EB0E0680F04881D9F82C60B21845F1F0
:1056B00000059A4275EB0E0680F04081D9F83090D3
:1056C00019EB020245F100059A4275EB0E0528BF61
:1056D0000C2380F0F380DFF81CE00DE0FCE70020F5
:1056E00093244992A07A00201F85EB51F5285C8F06
:1056F000295C8FC23F420F004A1C40F10000931802
:1057000040EB00059B1840EB050042015D0142EAB9
:10571000D3625B1940EB0200642B70F10002C0F011
:10572000BB801A0D42EA0032C2F31305C3F3130221
:105730002A44C0F313252A44834D02EB1072A5FBC3
:105740000295ED0805EB850505EB8505521B9B1AB7
:105750007E4A7F4D03FB02F260F1000005FB002052
:10576000A3FB053528449B0843EA807380089F42C9
:105770007AEB000280F09C800CEBCC0504EBC505B5
:105780006A68D2194AF100069A4276EB000780F067
:105790009980AF68BF1846F100069F4276EB000281
:1057A00080F09A80EA68D21946F100069A4276EBB8
:1057B000000780F093802F69BF1846F100069F42D2
:1057C00076EB000280F090806A69D21946F10007FA
:1057D0009A4277EB000680F08D80AE69B61847F1EB
:1057E00000079E4277EB000280F08E80EA699219F2
:1057F00047F100079A4277EB000680F087802E6A17
:10580000B61847F100079E4277EB000280F08880CF
:105810006D6AAD1947F100079D4277EB000280F0F9
:1058200085800CEBCC0604EBC606B26A521947F130
:1058300000079A4277EB00057AD2F56AAD1847F176
:1058400000079D4277EB00027AD2326B521947F182
:1058500000079A42874128BF0C232AD23D480CEB0F
:10586000CC02039104EBC204226C434602923A4AF2
:1058700001903A49032052F82C20CDF800E0FFF7C0
:1058800075FC04B0BDE8F08701230022CEE54FF09F
:105890000008C6464046E2E70123002067E70123EF
:1058A0004FF0000E98E653462D4A52F8238053E6F7
:1058B00000232B4A52F82300D1E70023284A52F84C
:1058C00023E019E70123F4E70123EDE70123F5E7DE
:1058D0000223E9E70223F1E70223EAE70323E8E7EB
:1058E0000323E1E70323E9E70423E2E70423E5E7F1
:1058F0000423D9E70523DCE70523DFE70523D3E706
:105900000623DBE70623CFE70623D2E70723D0E70A
:105910000723D3E70723C7E70823CFE70823C3E715
:105920000823C6E70923C9E70923BDE70923C0E720
:105930000A23BEE70A23B7E70A23BFE70B23BDE725
:105940000B23B6E70B23AFE71F85EB51F5285C8FE0
:10595000295C8FC23F420F0044D104102C6A04100E
:1059600080D10410F9B18A070B4617D147F6FC71B4
:1059700030B5214A214C85B0246812682546013A89
:10598000121B0A40934210D91D49A3EB020C0B686D
:1059900003EB9C030B603AB905B030BD194A13689C
:1059A000013313607047704713460146C5F30E007C
:1059B000C0F500449C42224628BF1A460393124B6E
:1059C000CDE90121184438F0B2FFDDE90121039B44
:1059D0009C4208D3BFF35F8F084AEB18C3F30E0352
:1059E000136005B030BD114407489A1A019338F08E
:1059F0009EFF019BEEE700BFB8740120D0E00020BD
:105A000008E1002004E1002014E9002031F0030344
:105A10002ED01C4A70B514681B4A82B01268121B43
:105A2000C2F30E02934228BF134633F0030302D1A0
:105A3000184602B070BD0646BFF35F8FC4F30E0177
:105A4000C1F500459D422A4628BF1A4601930F4BD7
:105A50000092194438F06BFF019B009AAB4209D8C1
:105A60001846084A1C44C4F30E04146002B070BD0A
:105A700018467047B01805499A1A009338F057FF36
:105A8000009BEDE7B8740120D0E0002014E900206D
:105A9000034A044B10681B68C01AC0F30E0070471D
:105AA000D0E00020B8740120044B054A10681A6841
:105AB0001860801AC0F38C00704700BFB8740120D2
:105AC000D0E00020014B1868704700BF08E10020BB
:105AD000014B1868704700BF04E10020704700BF09
